:020000040800F2
:10000000700A0020CD0100081B0C0008410B0008FD
:10001000190C0008570300085511000800000000E3
:10002000000000000000000000000000F5100008C3
:100030005903000800000000F3100008F710000842
:10004000E7010008E7010008E7010008E7010008F0
:10005000E7010008E7010008E7010008E7010008E0
:10006000E7010008E7010008E7010008E7010008D0
:10007000E7010008E7010008E7010008E7010008C0
:10008000E7010008E7010008E7010008E7010008B0
:10009000E7010008E7010008E7010008E7010008A0
:1000A000E7010008E7010008E7010008E701000890
:1000B000E7010008E7010008E7010008E701000880
:1000C000E7010008E7010008E7010008E701000870
:1000D000E7010008E7010008E7010008E701000860
:1000E000E7010008E7010008E7010008E701000850
:1000F000E7010008E7010008E7010008E701000840
:10010000E7010008E7010008E7010008E70100082F
:10011000E7010008E7010008E7010008E70100081F
:10012000E7010008E7010008E7010008E70100080F
:1001300000F002F800F03AF80AA090E8000C8244BF
:100140008344AAF10107DA4501D100F02FF8AFF29C
:10015000090EBAE80F0013F0010F18BFFB1A43F0A5
:100160000103184790190000B0190000103A24BF8D
:1001700078C878C1FAD8520724BF30C830C144BF0C
:1001800004680C607047000000230024002500264E
:10019000103A28BF78C1FBD8520728BF30C148BFEA
:1001A0000B6070471FB51FBD10B510BD00F09EF865
:1001B0001146FFF7F7FF00F0DFFF00F0BCF803B4D3
:1001C000FFF7F2FF03BC00F0BFF8000009488047CA
:1001D00009480047FEE7FEE7FEE7FEE7FEE7FEE729
:1001E000FEE7FEE7FEE7FEE704480549054A064B41
:1001F000704700005311000831010008700400200E
:10020000700A002070060020700600204FF00002E7
:1002100000B5134694469646203922BFA0E80C50FC
:10022000A0E80C50B1F12001BFF4F7AF090728BFD7
:10023000A0E80C5048BF0CC05DF804EB890028BF53
:1002400040F8042B08BF704748BF20F8022B11F07C
:10025000804F18BF00F8012B704700004FF0013CA1
:1002600050F8042B51F8043B9A4221D1A2EB0C0325
:10027000934313EACC1317D150F8042B51F8043BE5
:100280009A4215D1A2EB0C03934313EACC130BD182
:1002900050F8042B51F8043B9A4209D1A2EB0C030D
:1002A000934313EACC13DBD04FF00000704700BF3C
:1002B000D01A01BAB1FA81F101F0180122FA01F065
:1002C000CB40C1F12001DBB2C0B2C01A2CFA01F35D
:1002D000D11A914311EAC311E6D1704770477047B4
:1002E0007047000000487047100400207546FFF773
:1002F000F9FFAE4605006946534620F007008546E3
:1003000018B020B5FFF770FFBDE820404FF00006A1
:100310004FF000074FF000084FF0000B21F00701ED
:10032000AC46ACE8C009ACE8C009ACE8C009ACE830
:10033000C0098D46704710B50446AFF300802046D3
:10034000BDE81040FFF73BBF01491820ABBEFEE7F8
:10035000260002007047FEE7704700002DE9F84FC5
:10036000DFF8C8910024A9F1040B23460F2709F1F7
:10037000040AABF1040ED1E00125A54006EA05020E
:10038000AA4276D1DFF8A8C14E68A6EB0C086645F4
:100390002BD00DDC032E34D005DC36B3012E19D062
:1003A000022E2FD11BE0112E16D0122E2AD119E0C9
:1003B000B8F5881F19D006DCB8F5803F15D0B8F520
:1003C000801F1FD111E0B8F5001F0ED0B8F5041F33
:1003D00018D10AE0CB6815E0CB681B1D12E0CB6892
:1003E00008330FE0CB680C330CE08B682BB1012B8A
:1003F0004FF0080303D0456104E0042302E00561E7
:1004000000E00023FF2A01D8064601E000F10406BF
:100410004FEA840501D9A5F12005D6F8008007FA36
:1004200005FC28EA0C0803FA05F548EA0508C6F8B1
:1004300000804D68ED0070D53E4DAE6946F0010676
:10044000AE61AD6924F0030605F0010500953A4D53
:1004500006EB050CDCF80850A607360F07FA06F87D
:1004600025EA0805DFF8D480404503D14FF00008A5
:1004700025E052E0DFF8C880404502D14FF0010886
:100480001DE0DFF8C080404502D14FF0020816E0C1
:10049000DFF8B480404502D14FF003080FE0DFF8E9
:1004A000AC80404502D14FF0040808E0DFF8A0809E
:1004B000404502D14FF0050801E04FF0060808FA68
:1004C00006F848EA0508CCF808804D68D9F80060BD
:1004D000ED024D4601D5164300E096432E604D686F
:1004E000DAF80060AD02554601D5164300E09643A8
:1004F0002E604D68DBF80060AD035D4601D5164304
:1005000000E096432E604D68DEF80060ED0375460E
:1005100001D5164300E096432E60641C0A68164617
:10052000E2407FF429AFBDE8F88F000008040140E5
:1005300000001110001002400000014000080140BE
:10054000000C01400010014000140140001801405F
:10055000001C01400AB1016170470904FBE700007B
:100560000148806870470000000000200248816850
:10057000027811448160704700000020074810B5E0
:10058000016841F010010160032000F067F80F20BE
:1005900000F006F800F024F8002010BD0020024012
:1005A00070B50D4D04464FF47A712878B1FBF0F028
:1005B0000A490968B1FBF0F000F0AEFA48B9102C16
:1005C00007D200222146501E00F028F800206C605F
:1005D00070BD012070BD0000000000200C00002054
:1005E0000C4808B5816941F001018161816901F020
:1005F00001010091C16941F08051C161C06900F001
:10060000805000900448416821F0E06141F00071A1
:10061000416008BD0010024000000140F0B40E4BE4
:100620001B680C46C3F30223C3F10705042D00D950
:100630000425191D072901D2002300E0DB1E012635
:1006400006FA05F1491E214099409E40761E16404B
:100650003143F0BC00F07FBD0CED00E0064900F036
:10066000070208684FF6FF03184040EA0220034AD9
:1006700010430860704700000CED00E00000FA0530
:100680002DE9F0470F46050061D0434E306800F079
:100690000700B84209D2306820F0070038433060C4
:1006A000306800F00700B84251D128683B4C810700
:1006B00012D5400703D5606840F4E0606060287898
:1006C000000703D5606840F4605060606068A96806
:1006D00020F0F000084360602878C00728D06868E0
:1006E000012810D02168022810D0890700292EDAAD
:1006F000616821F0030101436160FFF731FF80462B
:1007000041F288390DE021688903EFE78901EDE7BF
:10071000FFF726FFA0EB0801494502D90320BDE8F9
:10072000F0876068696800F00C00B0EB810FEFD1D2
:10073000306800F00700B8420BD9306820F007009D
:1007400038433060306800F00700B84201D0012023
:10075000E5E72878400705D56068E96820F4E0609F
:10076000084360602878000706D56068296920F48E
:10077000605040EAC100606000F018F86168084A03
:10078000C1F30311515CC84006490860064800687F
:10079000FFF706FF0020C2E70020024000100240E1
:1007A000B61100080C000020040000200E4A516819
:1007B0000E4801F00C03042B11D0082B0FD10C486C
:1007C000C1F38343C903C05C0AD55168084AC1F329
:1007D0004041921E515C054A5043B0FBF1F0704716
:1007E00004494843704700000010024000127A009C
:1007F000A611000800093D002DE9F84F040070D053
:100800002078C04DC00749D06868C0F38100012836
:1008100007D06868C0F38100022809D16868C00366
:1008200006D52868800339D560680028E7D035E010
:100830006068B0F5803F0BD010B1B0F5A02F11D09B
:10084000286820F480302860286820F4802002E0A6
:10085000286840F480302860606890B1FFF780FE1F
:1008600006460AE0286840F480202860F0E700BFD0
:10087000FFF776FE801B642873D828688003F7D5BD
:100880000CE0FFF76DFE064605E000BFFFF768FECF
:10089000801B6428F0D828688003F7D420789A4E0B
:1008A00080074FF001094FF0000839D5686810F053
:1008B0000C0F07D06868C0F38100022809D168686E
:1008C000C00306D42868800714D52069012808D100
:1008D00010E02069B0B1C6F80090FFF741FE07466E
:1008E00005E00AE1FFF73CFEC01B0228C4D82868D7
:1008F0008007F7D52868616920F0F80040EAC10058
:1009000028600DE0C6F80080FFF72AFE074604E0E5
:10091000FFF726FEC01B022823D828688007F7D4DB
:10092000207800072CD57948A169D9B1C0F800908A
:10093000FFF716FE074604E0FFF712FEC01B022871
:100940000FD8686A8007F7D571484FF4FA510068EC
:10095000B0FBF1F0009000BF0098411E0091FAD268
:100960000EE080E0C0F80080FFF7FAFD074604E0E3
:10097000FFF7F6FDC01B022875D8686A8007F7D418
:100980002078400760D5E8690027C00008D4E869EE
:1009900040F08050E861E869012700F08050009045
:1009A0005C480168C90513D40168834641F480712D
:1009B0000160FFF7D5FD824606E000BFFFF7D0FDDE
:1009C000A0EB0A0064284ED8DBF80000C005F5D57E
:1009D000E06801280AD008B1052813D0286A20F061
:1009E00001002862286A20F0040002E0286A40F032
:1009F00001002862E06841F2883B98B1FFF7B0FD42
:100A000082460BE0286A40F004002862EEE700BF4F
:100A1000FFF7A6FDA0EB0A0159455AD8286A8007BE
:100A2000F6D50CE0FFF79CFD824605E0FFF798FD48
:100A3000A0EB0A0159454CD8286A8007F6D41FB1AB
:100A4000E86920F08050E861E06988B36968C1F323
:100A50008101022944D00228C6F8608004D0FFF743
:100A60007FFD044638E034E0FFF77AFD074604E0F6
:100A7000FFF776FDC01B02282BD828688001F7D429
:100A8000206AB0F5803F05D16868A16820F4003085
:100A900008436860D4E908010843696821F47411C7
:100AA00008436860C6F86090FFF75AFD044606E008
:100AB00025E000BFFFF754FD001B022809D8286875
:100AC0008001F7D51BE000BFFFF74AFD001B02289D
:100AD00002D90320BDE8F88F28688001F4D40EE025
:100AE0000128F7D06868226A00F48031914204D16D
:100AF000616A00F47010884201D00120EAE700200A
:100B0000E8E7000000100240000042428004424238
:100B10000C0000200070004010B5401EB0F1807F36
:100B200001D3012010BD4FF0E02460610F21601758
:100B300000F011FB0020A06107202061002010BD03
:100B4000FEE700002DE9F04385B000242F48009413
:100B5000019402940394816941F0080181618169E3
:100B600001F008010491816941F0200181618169EE
:100B700001F020010491816941F0040181618069E3
:100B8000DFF88C8000F004000490002242F603613C
:100B90004046FFF7DFFCDFF87C904FF440770022FF
:100BA00039464846FFF7D6FC4FF47040CDE90004C3
:100BB000694648460294FFF7D1FB4FF48850CDE9CF
:100BC0000004694640460294FFF7C8FB4FF43850D2
:100BD00001250226CDE90005CDE9024669464046D9
:100BE000FFF7BCFB0320CDE90005CDE902566946BD
:100BF0004046FFF7B3FB00970396CDE901546946E1
:100C00004846FFF7ABFB05B0BDE8F083001002409B
:100C100000140140000C0140FEE7FEE710B5002182
:100C2000074C0A46002004EBC1131A54401CC0B202
:100C30008028FAD3491CC9B20829F3D310BD00009B
:100C400010000020F0B50B4424E0044685181DE098
:100C50007F2C19D8002917DB3F2915DCCE1701EBB3
:100C600056764FEAE60C0D4F26F0070607EBCC1739
:100C70002744A1EB060E97F800C0012606FA0EF6EF
:100C80002CEA060C87F800C0641C24B2A542DFDC05
:100C9000491C09B28B42D8DCF0BD000010000020D6
:100CA00010B500204FF47A720021491C9142FCD308
:100CB000401C9042F8D3012000F0E2F9BDE810405A
:100CC000012000F0E5B970B500240646802525FA1C
:100CD00004F0304000D0012000F0DAF9012000F0EB
:100CE000CFF9002000F0CCF9641CE4B2082CEED35C
:100CF000012000F0C5F9BDE87040002000F0C0B947
:100D000010B5012000F0C4F9012000F0B9F900206D
:100D100000F0BEF9BDE81040002000F0B1B910B5F8
:100D2000002000F0B5F9012000F0AAF9BDE810405C
:100D3000012000F0ADB910B5FFF7B2FFAE2000F012
:100D4000AFF9D52000F0ACF9802000F0A9F9A82077
:100D500000F0A6F93F2000F0A3F9D32000F0A0F99D
:100D6000002000F09DF9402000F09AF9A12000F049
:100D700097F9C82000F094F9DA2000F091F91220D8
:100D800000F08EF9812000F08BF9CF2000F088F977
:100D9000D92000F085F9F12000F082F9DB2000F085
:100DA0007FF9302000F07CF9A42000F079F9A6202A
:100DB00000F076F98D2000F073F9142000F070F93E
:100DC000AF2000F06DF9FFF729FFBDE8104000F0FB
:100DD00043B910B50C4640F0B00000F061F91020A6
:100DE00040EA141000F05CF904F00F00BDE8104078
:100DF00000F056B908B5082B0DD0062B0AD10A4BC6
:100E000002EB420203EB4202C03A009208230622A0
:100E100000F00EF808BD054B03EB0212A2F50072BC
:100E2000102300920822F3E7B6170008C611000845
:100E30002DE9F04F1F4616460D4682460024FFF767
:100E400001FF7F1EF81707EB50700121DFF898B003
:100E500001EBE00743E000203DE000BF0AEB0003A8
:100E60007F2B36D8E91705EB5171CA1021F0070125
:100E7000691A002D03DA521E083112B209B202EBD0
:100E80000409B9F1070F0ED8099A04FB06F80244C9
:100E90000BEBC91E18F802201EF803C08A404CEA6A
:100EA000020C0EF803C009F10102072A11D80BEB5E
:100EB000C91202EB0308099A04FB06FC024498F8E5
:100EC00080301CF80220C1F10801CA40134388F8A1
:100ED0008030401CC0B2B042C0D3641CE4B2A74210
:100EE000B9DCBDE8F08F0000100000202DE9FF4FB5
:100EF000002483B09B4690462546A246DFF85091D9
:100F00009EE0100610D403988DF80420641C284439
:100F1000A4B28DF805A000B25B460499FFF76AFF02
:100F200005EB0B0085B28BE00620B0EB521F0ED113
:100F3000641CA0B28DF8042018F80010002974D0A9
:100F40008DF80510401C84B28DF806A03CE00E2000
:100F5000B0EB121F16D1641CA0B28DF8042018F853
:100F60000010002971D0401C80B28DF8051018F8CF
:100F70000010002969D08DF80610401C84B28DF84D
:100F800007A021E01E20B0EBD20F1FD1641CA0B23D
:100F90008DF8042018F80010002956D0401C80B2AB
:100FA0008DF8051018F8001000294ED0401C80B2B2
:100FB0008DF8061018F80010002946D0401C8DF856
:100FC000071084B28DF808A0002609E0641CA4B2C2
:100FD00036E0384601A9FFF741F968B1761CB6B290
:100FE00006EB860000EB461101EB0900074619A14C
:100FF000FFF734F90028ECD1BBF1080F03D0BBF1A7
:10100000060F1DD112E006EB860000EB461101EB46
:101010000900401D009003981023284400B21A468E
:101020000499FFF705FF103509E00EE00398062349
:10103000284400B23F220499FFF7DCFEAD1DADB29B
:1010400018F80420002A7FF45CAF07B0BDE8F08FE9
:10105000F01900080000000070B5084D00240021C0
:101060002046FFF7B6FE05EBC410802100F029F8FA
:10107000641CE4B2082CF2D370BD00001000002004
:10108000024601210148FFF765BA00000014014043
:10109000024602210148FFF75DBA0000001401403A
:1010A00010B50446FFF72CFE7820FFF70CFE002059
:1010B000FFF709FE2046FFF706FEBDE81040FFF7E8
:1010C0002EBE70B50D460646FFF71AFE7820FFF7D4
:1010D000FAFD4020FFF7F7FD002404E0305DFFF744
:1010E000F2FD641CE4B2AC42F8D3BDE87040FFF7F7
:1010F00016BE70477047FFF739BA30B58FB0282158
:101100006846FFF783F814210AA8FFF77FF801204B
:10111000022504900095102005900024CDE9075485
:1011200068460994FFF768FB08B172B6FEE70F2026
:10113000CDE90A054FF48060CDE90C4000210AA8F2
:101140000E94FFF79DFA002801D072B6FEE70FB0AB
:1011500030BD7047FEE70907090E002804DB00F1E7
:10116000E02080F80014704700F00F0000F1E0204C
:1011700080F8141D70470000FFF700FAFFF7BDFF6D
:10118000FFF7E0FCFFF7D7FD0021082303A2084684
:10119000FFF7ACFEFFF760FFF6E7000048656C6CF8
:1011A0006F000000010202030405060708090A0B8C
:1011B0000C0D0E0F101000000000000000000102D6
:1011C00003040607080900000000000000000000FA
:1011D000000000000000000000F800000000000017
:1011E00000333000000000160E00160E0000000054
:1011F00000000000000040C07840C0784000043F7C
:1012000004043F040400007088FC0830000000184B
:1012100020FF211E0000F008F000E018000000216F
:101220001C031E211E0000F00888700000001E2113
:10123000232419272110000000160E0000000000D2
:10124000000000000000000000E0180402000000A0
:1012500000071820400000020418E00000000040D1
:10126000201807000000404080F08040400002024B
:10127000010F01020200000000F000000000010167
:10128000011F01010100000000000000000000B08B
:1012900070000000000000000000000000000001DD
:1012A0000101010101010000000000000000003008
:1012B00030000000000000000000806018040060A2
:1012C00018060100000000E010080810E000000F00
:1012D000102020100F00001010F800000000002067
:1012E000203F2020000000700808088870000030AF
:1012F0002824222130000030088888483000001857
:10130000202020110E000000C02010F8000000076F
:101310000424243F240000F80888880808000019E5
:10132000212020110E0000E0108888180000000F16
:10133000112020110E0000380808C83808000000ED
:10134000003F000000000070880808887000001C42
:10135000222121221C0000E010080810E0000000FB
:10136000312222110F00000000C0C0000000000068
:10137000003030000000000000C0C000000000008D
:1013800080B07000000000008040201008000001C4
:101390000204081020004040404040404000040447
:1013A0000404040404000008102040800000002011
:1013B000100804020100007048080808F00000004E
:1013C000003036010000C030C828E810E0000718DF
:1013D000272423140B000000C038E0000000203C4C
:1013E00023020227382008F8888888700000203FF0
:1013F000202020110E00C030080808083800071807
:1014000020202010080008F808080810E000203FFD
:10141000202020100F0008F88888E8081000203FDE
:1014200020202320180008F88888E8081000203FB2
:10143000200003000000C03008080838000007182A
:101440002020221E020008F808000008F808203FAB
:10145000210101213F20000808F8080800000020B1
:10146000203F2020000000000808F8080800C08085
:1014700080807F00000008F888C028180800203FFE
:1014800020012638200008F8080000000000203F56
:1014900020202020300008F8F800F8F80800203F4D
:1014A000003F003F200008F830C00008F808203F47
:1014B000200007183F00E01008080810E0000F1097
:1014C000202020100F0008F808080808F000203F2E
:1014D000210101010000E01008080810E0000F18C9
:1014E000242438504F0008F8888888887000203FEE
:1014F0002000030C302000708808080838000038ED
:10150000202121221C00180808F8080818000000F3
:10151000203F2000000008F808000008F808001F1D
:10152000202020201F000878880000C8380800000C
:1015300007380E010000F80800F80008F800033C26
:101540000700073C030008186880806818082030EE
:101550002C03032C30200838C800C83808000000CD
:10156000203F2000000010080808C8380800203874
:10157000262120201800000000FE020202000000C8
:10158000007F40404000000C30C000000000000020
:1015900000010638C00000020202FE000000004008
:1015A00040407F00000000201008040810200000C8
:1015B000000000000000000000000000000080802B
:1015C000808080808080000204080000000000000D
:1015D00000000000000000008080808000000019F2
:1015E000242222223F2008F8008080000000003FD3
:1015F000112020110E000000008080800000000EED
:10160000112020201100000000808088F800000ECA
:10161000112020103F200000808080800000001FEB
:10162000222222221300008080F08888881800205F
:10163000203F202000000000808080808000006B20
:1016400094949493600008F8008080800000203F0C
:10165000210000203F20008098980000000000201A
:10166000203F20200000000000809898000000C06B
:101670008080807F000008F8000080808000203F8C
:1016800024022D302000000808F80000000000208F
:10169000203F202000008080808080808000203FCC
:1016A00020003F20003F008080008080000000205C
:1016B0003F2100203F200000808080800000001F2C
:1016C000202020201F00808000808000000080FFFC
:1016D000A12020110E000000008080808000000EFC
:1016E000112020A0FF80808080008080800020204A
:1016F0003F212000010000008080808080000033B6
:10170000242424241900008080E080800000000050
:10171000001F202000008080000000808000001F4B
:10172000202020103F2080808000008080800001E9
:101730000E300806010080800080008080800F301D
:101740000C030C300F00008080008080800000209F
:10175000312E0E31200080808000008080808081CA
:101760008E7018060100008080808080800000213B
:10177000302C2221300000000000807C020200009A
:101780000000003F404000000000FF00000000009B
:101790000000FF0000000002027C8000000000400A
:1017A000403F0000000000804040800000800000BA
:1017B0000000000101000000000000000000002FF8
:1017C000000000000700070000147F147F140024AD
:1017D0002A7F2A12002313086462003649552250DA
:1017E00000000007000000001C2241000000412210
:1017F0001C000014083E08140008083E08080000F9
:1018000000A06000000808080808000060600000F0
:10181000002010080402003E5149453E0000427F6E
:101820004000004261514946002141454B310018BA
:1018300014127F10002745454539003C4A4949307C
:101840000001710905030036494949360006494936
:10185000291E000036360000000056360000000841
:10186000142241000014141414140000412214081E
:10187000000201510906003E4955592E007C121103
:10188000127C007F49494936003E41414122007F98
:101890004141221C007F49494941007F0909090152
:1018A000003E4149497A007F0808087F0000417FD7
:1018B0004100002040413F01007F08142241007F89
:1018C00040404040007F020C027F007F0408107FF0
:1018D000003E4141413E007F09090906003E415159
:1018E000215E007F09192946004649494931000116
:1018F000017F0101003F4040403F001F2040201F6A
:10190000003F4038403F006314081463000708702C
:10191000080700615149454300007F414100000232
:1019200004081020000041417F000004020102046D
:101930000040404040400000010204000020545498
:101940005478007F484444380038444444200038E8
:101950004444487F00385454541800087E0901025A
:101960000018A4A4A47C007F080404780000447D2F
:101970004000004080847D00007F1028440000006B
:10198000417F4000007C04180478007C080404783F
:1019900000384444443800FC24242418001824242B
:1019A00018FC007C08040408004854545420000427
:1019B0003F444020003C4040207C001C2040201C34
:1019C000003C4030403C004428102844001CA0A0AB
:1019D000A07C004464544C440000087F4100000097
:1019E000007F00000000417F080000080408100884
:1019F000A3AC000000000000000000000000000098
:101A00000000000000000058380000000000000046
:101A10000000000000A1A300000000000000000082
:101A2000000000000000000000000000182424183E
:101A300000000000000000000000C4E300000000FF
:101A40008060F8074020180F08C80808281800010F
:101A50000000FF00100C0340807F0001061800BA50
:101A6000C30000001010F01F10F000808282E2928C
:101A70008A868000402215081661000040807F00A1
:101A800000000000CAC0000000202020FE2020FF2F
:101A9000202020FF20202020000000007F40404721
:101AA000444444474040400000BDE70000000000BF
:101AB00000FE929292FE929292FE000000000808B0
:101AC0000484621E010001FE0204040808000000F4
:101AD000000000FF010101310909090989710101B3
:101AE0000101FFFF808080808080968180808080DF
:101AF0008080FF00141B0008000000201000000080
:101B00006C010008241B000810000020600A00007F
:101B10008801000801000000100000000000000023
:041B200000127A0035
:0400000508000131BD
:00000001FF
