:020000040800F2
:10000000E8060020890100084F1000082D0F0008A5
:100010004D100008E70200088D11000800000000E4
:100020000000000000000000000000005310000865
:10003000E9020008000000005110000855100008F7
:10004000A3010008A3010008A3010008A301000800
:10005000A3010008A3010008A3010008A3010008F0
:10006000A3010008A3010008A3010008A3010008E0
:10007000A3010008A3010008A3010008A3010008D0
:10008000A3010008A3010008A3010008A3010008C0
:10009000A3010008A3010008A3010008A3010008B0
:1000A000A3010008A3010008A3010008A3010008A0
:1000B000A3010008A3010008A3010008A301000890
:1000C000A3010008A3010008A3010008A301000880
:1000D000A3010008A3010008A3010008A301000870
:1000E000A3010008A3010008A301000800F002F822
:1000F00000F03AF80AA090E8000C82448344AAF188
:100100000107DA4501D100F02FF8AFF2090EBAE885
:100110000F0013F0010F18BFFB1A43F0010318473B
:10012000D0100000F0100000103A24BF78C878C149
:10013000FAD8520724BF30C830C144BF04680C60ED
:10014000704700000023002400250026103A28BF35
:1001500078C1FBD8520728BF30C148BF0B60704739
:100160001FB51FBD10B510BD00F058F81146FFF7C0
:10017000F7FF01F01CF800F076F803B4FFF7F2FF88
:1001800003BC00F07DF8000009488047094800479B
:10019000FEE7FEE7FEE7FEE7FEE7FEE7FEE7FEE737
:1001A000FEE7FEE704480549054A064B7047000094
:1001B000D1100008ED000008E8000020E80600204B
:1001C000E8020020E80200204FF0000200B51346CC
:1001D00094469646203922BFA0E80C50A0E80C5067
:1001E000B1F12001BFF4F7AF090728BFA0E80C5018
:1001F00048BF0CC05DF804EB890028BF40F8042B11
:1002000008BF704748BF20F8022B11F0804F18BF7D
:1002100000F8012B7047704770477047754600F033
:100220002BF8AE4605006946534620F00700854688
:1002300018B020B5FFF7B6FFBDE820404FF000062C
:100240004FF000074FF000084FF0000B21F00701BE
:10025000AC46ACE8C009ACE8C009ACE8C009ACE801
:10026000C0098D46704710B50446AFF300802046A4
:10027000BDE81040FFF781BF0048704788000020AC
:1002800001491820ABBEFEE72600020070470000BF
:1002900070B5044600688168C943C90717D18168F1
:1002A00021F00101816000F051FA05460AE000BF2B
:1002B00000F04CFA401B022804D920688068C04333
:1002C000C00706D020688068C043C007F0D0002077
:1002D00070BDA06A40F01000A062E06A40F001002A
:1002E000E062012070BDFEE7704772B6FEE70000D5
:1002F000F8B50024009490F824202546012A12D055
:10030000012280F824204A681F23072A0DD206689C
:10031000776B521E02EB820293409F430B6893401F
:100320001F43776319E00220F8BD06680D2A0AD240
:10033000376BD21F02EB820293409F430B689340BE
:100340001F43376309E0F76A0D3A02EB82029340DC
:100350009F430B6893401F43F7620A6807230668B0
:100360000A2A0AD3F7680A3A02EB420293409F43F3
:100370008B6893401F43F76008E0376902EB420245
:1003800093409F438B6893401F4337610A68102A4C
:1003900001D0112A20D1124B02689A4217D19368DA
:1003A0001B0219D4936843F4000393600968102971
:1003B00012D10C490C4A0968B1FBF2F101EB810141
:1003C000490000E0491E00910029FBD104E0816A48
:1003D00041F020018162012480F824502046F8BDBC
:1003E000002401400C00002040420F002DE9F041A4
:1003F0004FF0000704003D467ED0A06A002628B9D1
:10040000E66284F82460204600F07EF82046FFF77C
:100410003FFFA16AC90600D420B1A06A40F01000D5
:10042000A06269E0A16A21F4885141F00201A16251
:100430006268E169237B0A4347EA43010A43A168F2
:100440004FF48077B94209D0012907D05FF000014D
:1004500094F814C0BCF1010F02D00AE03946F7E766
:10046000F3B1A36A43F02003A362E36A43F00103FC
:10047000E3622368D3F804C02CF4694C4CEA010C05
:10048000C3F804C021688B68DFF870C003EA0C036E
:1004900013438B60A168B9420BD0012909D00CE04D
:1004A000DFF85CC0A3690CEB43330B4343F40061FA
:1004B000DFE7218A0D05A5F580152168CB6A23F4B5
:1004C00070032B43CB62216889680E4B194091421F
:1004D00008D1E662A16A21F0020141F00101A162A6
:1004E000BDE8F081A06A20F0020040F01000A06298
:1004F000E06A40F00100E0620120F1E7FDF7E1FF72
:1005000000E0FFFFFE0E1FFF00B585B00021009147
:1005100001910291039100680E49884218D10E485A
:10052000816941F400718161816901F40071049174
:10053000816941F0040181618069694600F004002D
:100540000490C020009003200190044800F008F8B7
:1005500005B000BD00240140001002400008014029
:100560002DE9F84FDFF8B8910024A9F1040B2346D8
:100570000F2709F1040AABF1040EC9E00125A540DB
:100580002A40AA427DD1674ED1F804C0ACEB0608E0
:10059000B44532D014DCBCF1030F3AD009DCBCF115
:1005A000000F2AD0BCF1010F1CD0BCF1020F31D1D9
:1005B0001DE0BCF1110F17D0BCF1120F2AD119E0C8
:1005C000B8F5881F19D006DCB8F5803F15D0B8F50E
:1005D000801F1FD111E0B8F5001F0ED0B8F5041F21
:1005E00018D10AE0CB6815E0CB681B1D12E0CB6880
:1005F00008330FE0CB680C330CE08B682BB1012B78
:100600004FF0080303D0456104E0042302E00561D4
:1006100000E00023FF2A01D8064601E000F10406AD
:100620004FEA840501D9A5F12005D6F8008007FA24
:1006300005FC28EA0C0803FA05F548EA0508C6F89F
:1006400000804D68ED0062D5374DAE6946F0010679
:10065000AE61AD6924F0030605F001050095334D48
:1006600006EB050CDCF80850A607360F07FA06F86B
:1006700025EA0805DFF8B880404503D14FF00008AF
:1006800017E044E0DFF8AC80404502D14FF00108AC
:100690000FE0DFF8A480404502D14FF0020808E0E7
:1006A000DFF89880404502D14FF0030801E04FF099
:1006B000040808FA06F848EA0508CCF808804D68EE
:1006C000D9F80060ED024D4601D5164300E096438F
:1006D0002E604D68DAF80060AD02554601D516432C
:1006E00000E096432E604D68DBF80060AD035D4688
:1006F00001D5164300E096432E604D68DEF8006099
:10070000ED03754601D5164300E096432E60641C48
:100710000D682A46E5407FF431AFBDE8F88F000050
:1007200008040140000011100010024000000140C8
:1007300000080140000C014000100140001401407D
:100740000AB1016170470904FBE7000001488068B5
:1007500070470000000000200248816802781144C0
:100760008160704700000020074810B5016841F023
:1007700010010160032000F067F80F2000F006F878
:1007800000F024F8002010BD0020024070B50D4D8F
:1007900004464FF47A712878B1FBF0F00A490968F1
:1007A000B1FBF0F000F044FB48B9102C07D2002256
:1007B0002146501E00F028F800206C6070BD01201A
:1007C00070BD0000000000200C0000200C4808B59F
:1007D000816941F001018161816901F001010091AC
:1007E000C16941F08051C161C06900F08050009042
:1007F0000448416821F0E06141F00071416008BDAA
:100800000010024000000140F0B40E4B1B680C4683
:10081000C3F30223C3F10705042D00D90425191DD4
:10082000072901D2002300E0DB1E012606FA05F1AC
:10083000491E214099409E40761E16403143F0BC2F
:1008400000F0A5BC0CED00E0064900F007020868C6
:100850004FF6FF03184040EA0220034A10430860A5
:10086000704700000CED00E00000FA052DE9F843A8
:1008700005460078354CC00754D0E0690026C0001A
:1008800008D4E06940F08050E061E069012600F0A2
:10089000805000902E480168C90512D40168804636
:1008A00041F480710160FFF751FF074605E000BF8A
:1008B000FFF74CFFC01B642823D8D8F80000C00500
:1008C000F6D5206A10F4407021D0A98801F4407157
:1008D00081421CD0206A1F49012220F440700A6026
:1008E00000220A602062C00711D0FFF72FFF0746E1
:1008F00041F2883808E000BFFFF728FFC11B4145DF
:1009000002D90320BDE8F883206A8007F4D5206A65
:10091000696820F44070084320621EB1E06920F04D
:100920008050E0612878800705D56068A96820F4C8
:100930004040084360602878C00605D56068E968D3
:1009400020F48000084360600020DBE700100240D4
:1009500000700040400442422DE9F0470F46050078
:1009600061D0434E306800F00700B84209D23068C9
:1009700020F0070038433060306800F00700B842CC
:1009800051D128683B4C810712D5400703D56068D8
:1009900040F4E06060602878000703D5606840F4A8
:1009A000605060606068A96820F0F00008436060F3
:1009B0002878C00728D06868012810D0216802284C
:1009C00010D0890700292EDA616821F00301014364
:1009D0006160FFF7BBFE804641F288390DE0216877
:1009E0008903EFE78901EDE7FFF7B0FEA0EB08010F
:1009F000494502D90320BDE8F0876068696800F0C6
:100A00000C00B0EB810FEFD1306800F00700B84266
:100A10000BD9306820F0070038433060306800F0B0
:100A20000700B84201D00120E5E72878400705D546
:100A30006068E96820F4E060084360602878000797
:100A400006D56068296920F4605040EAC100606002
:100A500000F038F86168084AC1F30311515CC840DE
:100A60000649086006480068FFF790FE0020C2E7CC
:100A70000020024000100240D61100080C000020A7
:100A8000040000200448054900684968044AC1F38D
:100A90000221515CC84070470C0000200010024049
:100AA000E61100080448054900684968044AC1F392
:100AB000C221515CC84070470C0000200010024069
:100AC000E61100080E4A51680E4801F00C03042B91
:100AD00011D0082B0FD10C48C1F38343C903C05C6C
:100AE0000AD55168084AC1F34041921E515C054A3B
:100AF0005043B0FBF1F07047044948437047000091
:100B00000010024000127A00C611000800093D00E2
:100B10002DE9F84F040070D02078C04DC00749D0AF
:100B20006868C0F38100012807D06868C0F38100BD
:100B3000022809D16868C00306D52868800339D522
:100B400060680028E7D035E06068B0F5803F0BD0E2
:100B500010B1B0F5A02F11D0286820F480302860A3
:100B6000286820F4802002E0286840F48030286063
:100B7000606890B1FFF7EAFD06460AE0286840F495
:100B800080202860F0E700BFFFF7E0FD801B6428AD
:100B900073D828688003F7D50CE0FFF7D7FD064629
:100BA00005E000BFFFF7D2FD801B6428F0D828685D
:100BB0008003F7D420789A4E80074FF001094FF058
:100BC000000839D5686810F00C0F07D06868C0F3CA
:100BD0008100022809D16868C00306D4286880070C
:100BE00014D52069012808D110E02069B0B1C6F8F9
:100BF0000090FFF7ABFD074605E00AE1FFF7A6FD11
:100C0000C01B0228C4D828688007F7D52868616906
:100C100020F0F80040EAC10028600DE0C6F800802E
:100C2000FFF794FD074604E0FFF790FDC01B022884
:100C300023D828688007F7D4207800072CD5794876
:100C4000A169D9B1C0F80090FFF780FD074604E024
:100C5000FFF77CFDC01B02280FD8686A8007F7D514
:100C600071484FF4FA510068B0FBF1F0009000BFFA
:100C70000098411E0091FAD20EE080E0C0F800809A
:100C8000FFF764FD074604E0FFF760FDC01B022884
:100C900075D8686A8007F7D42078400760D5E8697E
:100CA0000027C00008D4E86940F08050E861E86996
:100CB000012700F0805000905C480168C90513D4FA
:100CC0000168834641F480710160FFF73FFD824671
:100CD00006E000BFFFF73AFDA0EB0A0064284ED8FB
:100CE000DBF80000C005F5D5E06801280AD008B19E
:100CF000052813D0286A20F001002862286A20F015
:100D0000040002E0286A40F001002862E06841F235
:100D1000883B98B1FFF71AFD82460BE0286A40F045
:100D200004002862EEE700BFFFF710FDA0EB0A0108
:100D300059455AD8286A8007F6D50CE0FFF706FD1A
:100D4000824605E0FFF702FDA0EB0A0159454CD8A9
:100D5000286A8007F6D41FB1E86920F08050E86166
:100D6000E06988B36968C1F38101022944D002288F
:100D7000C6F8608004D0FFF7E9FC044638E034E0B0
:100D8000FFF7E4FC074604E0FFF7E0FCC01B022885
:100D90002BD828688001F7D4206AB0F5803F05D1B0
:100DA0006868A16820F4003008436860D4E908014D
:100DB0000843696821F4741108436860C6F86090BC
:100DC000FFF7C4FC044606E025E000BFFFF7BEFCC9
:100DD000001B022809D828688001F7D51BE000BF56
:100DE000FFF7B4FC001B022802D90320BDE8F88FEE
:100DF00028688001F4D40EE00128F7D06868226AE0
:100E000000F48031914204D1616A00F4701088428C
:100E100001D00120EAE70020E8E7000000100240CE
:100E200000004242800442420C000020007000405A
:100E300010B5401EB0F1807F01D3012010BD4FF0EE
:100E4000E02460610F21601700F0A1F90020A0618B
:100E500007202061002010BD70B5040004D094F874
:100E60004100002510B106E0012070BD84F840501B
:100E7000204600F023F8242084F841002068C1684F
:100E800021F40051C160204600F024F92068016976
:100E900021F4904101612068416921F02A014161FA
:100EA0002068C16841F40051C1606564202084F865
:100EB000410084F842006563002070BD30B585B004
:100EC0000024009401940294039400681449884219
:100ED00024D11448816941F480418161816901F420
:100EE00080410491816941F00401816180690E4D66
:100EF00000F0040004904FF4007000900220019074
:100F00000320039069462846FFF72AFB2815CDE900
:100F10000004694628460294FFF722FB05B030BD65
:100F2000003801400010024000080140FEE70000C8
:100F30003EB5002411480094019402940E49846047
:100F4000016004730475012505614FF4602144605C
:100F5000C161FFF74BFA08B1FFF7C7F90620CDE9E9
:100F60000005694602940548FFF7C2F9002801D040
:100F7000FFF7BBF93EBD0000002401401000002037
:100F800070B586B000242148009401940294039423
:100F9000816941F010018161816901F010010491C2
:100FA000816941F020018161816901F02001049192
:100FB000816941F004018161816901F004010491BA
:100FC000816941F0080181618069114E00F00800DB
:100FD00040F607450490002229463046FFF7B0FB53
:100FE00001200095CDE901040220039069463046B6
:100FF000FFF7B6FA4FF4E040CDE900046946304609
:101000000294FFF7ADFA06B070BD00000010024078
:10101000000C01400C4810B50A4901604FF4E13161
:101020004160002181600C22C160C0E9041281612D
:10103000C161FFF711FF002803D0BDE81040FFF7A2
:1010400054B910BD0038014040000020FEE7FEE723
:1010500070477047FFF780BB30B593B028216846D2
:10106000FFF7B2F814210AA8FFF7AEF80025012017
:101070000F9510951195010412958DE823000490A9
:101080004FF4E010CDE90810022407946846FFF7FA
:101090003FFD08B172B6FEE70AA90F2081E83100D2
:1010A0004FF48060CDE90D0502210AA8FFF754FC3A
:1010B00008B172B6FEE74FF4004011900F940FA8EC
:1010C000FFF7D4FB002801D072B6FEE713B030BDA5
:1010D0007047000070B5044600680169E26821F4B9
:1010E0004051114301612169A068084361690843C7
:1010F0002168CA6841F20C639A430243CA602068BF
:101100004169A26921F44071114341611E4920687F
:10111000884202D1FFF7C6FC01E0FFF7B3FC00EB09
:10112000C00101EB0012606864218000B2FBF0F3A3
:10113000B3FBF1F36FF018067343B2FBF0F5B2FBAB
:10114000F0F605EB8305322303EB0515B5FBF1F54E
:10115000B6FBF1F605F0F00505EB0615B2FBF0F66F
:10116000B2FBF0F0B0FBF1F06FF01802504306EB69
:10117000800003EB0010B0FBF1F0216800F00F00DD
:101180002844886070BD000000380140FEE7090770
:10119000090E002804DB00F1E02080F800147047FD
:1011A00000F00F0000F1E02080F8141D7047FFF7F9
:1011B000DBFAFFF751FFFFF7E3FEFFF7B9FEFFF79A
:1011C00029FFFEE7010202030405060708090A0BCE
:1011D0000C0D0E0F101000000000000000000102B6
:1011E00003040607080900000000010203040000D0
:1011F0001012000800000020100000002801000864
:101200002012000810000020D80600004401000849
:1012100001000000100000000000000000127A0031
:04000005080000ED02
:00000001FF
