:020000040800F2
:10000000480D0020E5010008DB210008EF20000872
:10001000D9210008EF0E0008E52B000800000000C1
:10002000000000000000000000000000DD280008C3
:10003000110F0008000000000B270008DF2800084F
:10004000FF010008FF010008FF010008FF01000890
:10005000FF010008FF010008FF010008FF01000880
:10006000FF010008FF010008FF010008FF01000870
:10007000FF010008FF010008FF010008FF01000860
:10008000FF010008FF010008FF010008FF01000850
:10009000FF010008FF010008FF010008FF01000840
:1000A000FF010008FF010008FF010008FF01000830
:1000B000FF010008FF010008FF010008FF01000820
:1000C000FF010008FF010008FF010008FF01000810
:1000D000FF010008CD2B0008FF010008D92B000804
:1000E000FF010008FF010008FF010008FF010008F0
:1000F000FF010008FF010008FF010008FF010008E0
:10010000FF010008FF010008FF010008FF010008CF
:10011000FF010008FF010008FF010008FF010008BF
:10012000FF010008FF010008FF010008FF010008AF
:1001300000F002F800F047F80AA090E8000C8244B2
:100140008344AAF10107DA4501D100F03CF8AFF28F
:10015000090EBAE80F0013F0010F18BFFB1A43F0A5
:10016000010318471836000038360000103A24BF43
:1001700078C878C1FAD8520724BF30C830C144BF0C
:1001800004680C607047000000230024002500264E
:10019000103A28BF78C1FBD8520728BF30C148BFEA
:1001A0000B607047642900F04980002070471FB53C
:1001B0009DE8030000F046FC00F036FA1FBD10B5C4
:1001C00000F09BFA10BD00F003FB1146FFF7EFFFB4
:1001D00002F02CFD00F008FC03B4FFF7F0FF03BCB5
:1001E00000F0C2FD0948804709480047FEE7FEE7E6
:1001F000FEE7FEE7FEE7FEE7FEE7FEE7FEE7FEE7D7
:1002000004480549054A064B704700004B29000881
:100210003101000848070020480D0020480900204F
:10022000480900200FB4044910B503AA029800F051
:10023000E1F910BC5DF814FB3C0600202DE9F0410B
:100240000646002410687529314616A510D0AFF374
:100250000080002802DA404213A507E031688A07CF
:1002600001D512A502E0490704D511A5012401E03A
:10027000AFF3008000210A2206F1240709E0B0FB59
:10028000F2FCB0FBF2F302FB1C003030785418464D
:10029000491C0028F3D123462A463046BDE8F041E8
:1002A00000F037B9000000002D0000002B00000016
:1002B000200000002DE9F05F894604464FF0000A57
:1002C000DFF874B1FB44C0F820A02046E1688847FD
:1002D000002874D0252806D0D4E901219047206A4F
:1002E000401C2062F1E700265F462046E16888470F
:1002F0002028054607DB312D05D2781910F8200C8F
:1003000008B10643F1E7B00701D526F00406C4F8AA
:100310001CA00027C4F818A02A2D09D0284602F0F6
:1003200072FC38B304EB8708303DC8F8185019E068
:1003300059F8041B204604EB87029161E168884765
:10034000012F054618D1E069002820DA26F02006A2
:100350001DE0D8F8180000EB800005EB40003038B5
:10036000C8F818002046E1688847054602F04BFCB3
:100370000028EED1012F0AD02E2D08D12046E168A9
:1003800088477F1C0546022F46F02006C4DBA06983
:10039000002803DA404246F00106A061F00701D0D0
:1003A00026F010066C2D0BD0682D09D04C2D39D0BD
:1003B0006A2D35D0742D35D07A2D33D016E038E043
:1003C000E1682F4620468847B842054609D16C2F80
:1003D00026D04FF48060E1680643204688470546F2
:1003E00004E06C2F1AD04FF4807006430DB3A5F1D2
:1003F0004100192802D8203546F400664A462946AD
:10040000204626604E46FFF7CDFE80B101280BD076
:10041000F61D26F0070000F1080956E74020E4E742
:100420008020D8E70020D6E706F104094DE72846EA
:1004300052E7206ABDE8F09F973400004FF00002B9
:1004400000B5134694469646203922BFA0E80C50CA
:10045000A0E80C50B1F12001BFF4F7AF090728BFA5
:10046000A0E80C5048BF0CC05DF804EB890028BF21
:1004700040F8042B08BF704748BF20F8022B11F04A
:10048000804F18BF00F8012B704700004FF0013C6F
:1004900050F8042B51F8043B9A4221D1A2EB0C03F3
:1004A000934313EACC1317D150F8042B51F8043BB3
:1004B0009A4215D1A2EB0C03934313EACC130BD150
:1004C00050F8042B51F8043B9A4209D1A2EB0C03DB
:1004D000934313EACC13DBD04FF00000704700BF0A
:1004E000D01A01BAB1FA81F101F0180122FA01F033
:1004F000CB40C1F12001DBB2C0B2C01A2CFA01F32B
:10050000D11A914311EAC311E6D170477047704781
:1005100070472DE9F0470D4699469246044600F192
:1005200024080168880604D5E06921F010012160E3
:1005300000E00120A84201DD471B00E00027A1697F
:100540007A1902EB0900081AA0612078C00602D4CB
:100550002046AFF30080002608E0D4E901211AF814
:1005600006009047206A401C761C20624E45F4DB52
:100570002078C0060AD52046AFF3008006E0D4E913
:10058000012130209047206A401C2062381EA7F1CC
:100590000107F4DC07E0D4E9012118F805009047D1
:1005A000206A401C2062281EA5F10105F3DC2046CC
:1005B000AFF300802078000602D50220BDE8F08766
:1005C0000120FBE701694A1C02610878704700B509
:1005D0008FB0CDE901310021059105497944CDE97C
:1005E000031011466846FFF765FE0FB000BD00001E
:1005F000E5FFFFFF074B70B50D467B44FFF7E7FFB4
:100600000446284600F00CF810B14FF0FF3070BDE2
:10061000204670BD1726000000487047E406002001
:10062000007B00F08000704710B542485421FFF76E
:1006300005FF41485421FFF701FF40485421FFF7CF
:10064000FDFE3F493B483C4A3F4B08603D490A603C
:100650003A491960531C0365481C10650120086560
:100660003B48344A39A1784400F022F920B938488F
:1006700078440A3800F0C1F937482F4A35A1784448
:1006800000F016F920B9344878440A3800F0B5F97A
:1006900032482A4A2FA1784400F00AF920B92F489D
:1006A00078440A3800F0A9F940232248DC000021F0
:1006B000224600F0D9F820B125487844543800F09B
:1006C0009CF91D4822464023002100F0CDF820B1BE
:1006D00021487844543800F090F9184822461023F5
:1006E000002100F0C1F8002806D01C487844BDE87D
:1006F0001040563800F081B910BD104870B5006D3B
:1007000020F001040B4800F049F90B4800F046F9CD
:100710000A4800F043F909E0206D20F00105204669
:1007200000F03CF9204600F078F82C46002CF3D17C
:1007300070BD0000E80500203C0600209006002067
:100740001C00002020000020240000207200000077
:100750000631000077000000F2300000DE300000BB
:100760000EB5CDE9000100F0DFFA029069460120E4
:10077000ABBE0EBD08B5694600900220ABBE08BDF9
:100780001FB58DE8070069460520ABBE04B010BD5B
:100790001FB58DE80F0069460620ABBEF6E708B529
:1007A000694600900920ABBE08BD1CB5CDE900012B
:1007B00069460A20ABBE1CBD704708B5694600906B
:1007C0000C20ABBE08BD000000487047E4060020C6
:1007D0007546FFF7F9FFAE4605006946534620F01F
:1007E0000700854618B020B5FFF70AFDBDE8204098
:1007F0004FF000064FF000074FF000084FF0000BDD
:1008000021F00701AC46ACE8C009ACE8C009ACE88F
:10081000C009ACE8C0098D46704770B50446051F95
:1008200000F0F4F80068002C14BF446870BD002C80
:1008300018BFAC423CBF20466468F8D301680A1870
:10084000AA4218BF456003D12A68054611440160D9
:1008500028684119A1421CBF6C6070BD6168696065
:1008600021680844286070BD70B5C468A50713D01E
:10087000650211D4B2F5807F09D0B2F5007F06D0B1
:10088000B2F5806F08D1012300F1240106E05D1E5E
:100890006FF07F46B54201D3012070BD0161C36195
:1008A000416024F470611143C160002070BD0000FC
:1008B0002DE9F0410C4607461646104600F06EF84A
:1008C0002078611C61280AD0722802D077283CD198
:1008D00002E00125002405E00225042402E00824AA
:1008E00048F2020511F8010B2B2806D0622809D026
:1008F00011F8010C74280AD00BE045F0030544F010
:100900000204EFE745F0040544F00104EAE744F08F
:10091000100438462146FFF723FF411C15D0002163
:10092000316171604FF40071F560F1617061200711
:1009300004D530460222002100F0E2F8306D40F08C
:10094000010030653046BDE8F0810020FBE72DE96D
:10095000F0410D460646104C206DC10704D04108F9
:1009600004D020F00104F7E722460EE0542000F006
:1009700098F807000ED0206D47F00101084354217C
:1009800020653846FFF75AFD3A4629463046BDE80D
:10099000F0418DE70020D6E7E80500202DE9F0477B
:1009A00004464FF000094FF0FF37C568D4E90486CC
:1009B000A80707D0204600F053F93046FFF7DAFECB
:1009C000002802DA3846BDE8F087280502D54046FF
:1009D000FFF723FF4C212046FFF730FD206D20F06C
:1009E000010020654846EEE710B50446AFF30080ED
:1009F0002046BDE81040FFF7EFBB10B500F07AF9D4
:100A0000BDE8104000F070B9704700000048704722
:100A1000EC060020704770477047704738B50446B1
:100A20000A4600206946AFF30080002808BF38BDA1
:100A300002460099204600F0A4F9012038BD0120AB
:100A400000F0F3B9F8B5AFF30080054600200C467E
:100A5000102000BF0646A819A0420DD932466946AB
:100A60000020AFF30080070008BF00F0DEF9009817
:100A7000A04218BF0546C419FFF7C8FF0560074626
:100A8000F01D20F007004619284600F073F9B44223
:100A900008BFF8BDA21B31463868BDE8F84000F039
:100AA00070B970B50646FFF7B1FF056806F10B0097
:100AB00020F00704B4429CBF002070BD2B466A683A
:100AC000BAB11068A04210D304F1080188423CBFBB
:100AD0005068586007D35168101941601168091BAC
:100AE000016058601460101D70BD13465268002AE2
:100AF000E7D121462846FFF791FF0028DED170BDDF
:100B00002DE9F041044616460D464769007B8007F3
:100B10002ED03846FFF743FE50BB3EB3012E02D025
:100B2000022E25D104E0204600F045F905441DE0E1
:100B30003846FFF742FEE168002841F01001E1600D
:100B400005DA204600F058F80120BDE8F081C9031D
:100B50000BD56268E16A914200D81146A26911443E
:100B60002269891A814200DD08460544002D01DA18
:100B70000220EAE7E16A6068E268814206D29103F6
:100B8000E06203D522F4003141F01002A66900278B
:100B9000AE4213DCE16A814201D90B4600E0034614
:100BA00003EB060C2369ACEB030CAC4506DD81427C
:100BB00001D98C4600E084469C4505D1A76027609A
:100BC00042F02000A5620DE0AD1BE669AE1B81423C
:100BD000A66000D90846C01A281A2060581960601B
:100BE00022F0200003490840E060002084F84870AB
:100BF000ABE70000BFCFD7FFC16821F4001141F07F
:100C00008001C16000218160016070472DE9F047DB
:100C1000814614460E464FF0FF383248D568576972
:100C2000054209D03846A169FFF7BFFD002811DB56
:100C30002C48C0430540E5602B46324649463846BD
:100C4000FFF79EFDA16920F00042B21A114400286E
:100C5000A16103D02046FFF7CFFF4046BDE8F087F3
:100C600070B504460569C06A6168884200D80846C4
:100C7000E16821F42011E160C90312D5A84208D02F
:100C80002246411B2846FFF7C1FF10B14FF0FF304D
:100C900070BD0020E562C4E90150E06820F48030B6
:100CA000E060002070BD10B50446C06820F0200050
:100CB000E060A16AA06988420DD02046FFF7D0FF0E
:100CC000E06820F4405040F01000E060A06AA061AD
:100CD0002069E062606044F24001E0688843E060BF
:100CE00010BD000010000200002801D000F03CB848
:100CF0007047000010B5014602A000F07DF8012009
:100D000010BD000053494752545245443A205265A1
:100D10006469726563743A2063616E2774206F7032
:100D2000656E3A200000000010B5431C02E010F888
:100D3000011B71B18107FAD14FF0013202C88C1A40
:100D40008C4314EAC211F9D0C01A0A0603D0C01E9F
:100D500010BDC01A10BD0A0401D0801E10BD0902CA
:100D6000FCD0401E10BD000001491820ABBEFEE7BC
:100D70002600020000210160C0E901107047102028
:100D80007047034640688C46002818BF88423CBF25
:100D900003464068F8D318681844884207D00CF11D
:100DA000030020F00700001D411A521A0146081DD9
:100DB0000A60FFF732BD10B50146C268900703D044
:100DC000900607D5886A0AE0FFF726FC012101603A
:100DD000881E10BD8B69486818440B69C01A91F8C9
:100DE00048301BB191F84910401A10BD1103FCD5D1
:100DF0000028FADD401E10BD70B505460C460A20DD
:100E000000E06D1C00F018F835B128780028F8D102
:100E100002E0641C00F010F814B120780028F8D12A
:100E2000BDE870400A2000F007B810B500F00CF8DB
:100E3000BDE81040FFF758BF08B569468DF80000BF
:100E40000320ABBE08BD000010B5012805D000216D
:100E500003A0FFF7D1FF012010BD09A1F8E70000B2
:100E600053494752544D454D3A204F7574206F6693
:100E70002068656170206D656D6F727900000000FB
:100E80003A2048656170206D656D6F727920636FDF
:100E9000727275707465640070B50446006881688C
:100EA000C943C90717D1816821F00101816000F0B1
:100EB0003BFB05460AE000BF00F036FB401B022862
:100EC00004D920688068C043C00706D020688068C5
:100ED000C043C007F0D0002070BDA06A40F01000F1
:100EE000A062E06A40F00100E062012070BDFEE710
:100EF0000020054A01461154401CC0B2FF28FAD315
:100F00000248017070470000E80000200000002047
:100F100070470000F8B50024009490F8242025467E
:100F2000012A12D0012280F824204A681F23072AB0
:100F30000DD20668776B521E02EB820293409F43EC
:100F40000B6893401F43776319E00220F8BD0668E1
:100F50000D2A0AD2376BD21F02EB820293409F43C5
:100F60000B6893401F43376309E0F76A0D3A02EBC1
:100F7000820293409F430B6893401F43F7620A68C5
:100F8000072306680A2A0AD3F7680A3A02EB4202E4
:100F900093409F438B6893401F43F76008E0376995
:100FA00002EB420293409F438B6893401F4337619B
:100FB0000A68102A01D0112A20D1124B02689A42E5
:100FC00017D193681B0219D4936843F4000393600C
:100FD0000968102912D10C490C4A0968B1FBF2F1D9
:100FE00001EB8101490000E0491E00910029FBD17D
:100FF00004E0816A41F020018162012480F82450DC
:101000002046F8BD002401401800002040420F0097
:101010002DE9F04104004FF000057FD0A06A0026C2
:1010200028B9E66284F82460204600F081F8204662
:10103000FFF732FFA16AC90600D420B1A06A40F0D0
:101040001000A0626AE0A16A21F4885141F0020117
:10105000A162334923688B42E16904D1B1F5402F85
:1010600001D14FF40021277B4FF4807C41EA4702F5
:1010700061680A43A168614508D0012906D00021B2
:1010800094F814E0BEF1010F02D00AE06146F7E7E0
:10109000C7B1A76A47F02007A762E76A47F00107D0
:1010A000E7625F6827F469470F435F6023689968C8
:1010B0001C4F394011439960A16861450BD001294B
:1010C00009D00CE0DFF860E0A7690EEB47370F436B
:1010D00047F40061E5E7218A0D05A5F58015216833
:1010E000CB6A23F470032B43CB62216889680F4BD2
:1010F0001940914208D1E662A16A21F0020141F053
:101100000101A162BDE8F081A06A20F0020040F078
:101110001000A062E06A40F00100E0620120F1E707
:10112000003C0140FDF7E1FF00E0FFFFFE0E1FFF66
:1011300000B585B0002100910191029103910068F2
:101140000E49884218D10E48816941F400718161CD
:10115000816901F400710491816941F004018161A8
:101160008069694600F00400049018200090032074
:101170000190044800F0D6F805B000BD00240140FD
:10118000001002400008014010B590F82110002224
:10119000022905D00421816380F82020012010BDA0
:1011A00001680B6823F00E030B6001680B6823F0E5
:1011B00001030B6090F84030C46B012101FA03F386
:1011C000636080F8211080F82020104610BD0000D8
:1011D0002DE9F05F90F821100024022903D00421AA
:1011E0008163012485E001680A6822F00E020A602A
:1011F00001680A6822F001020A603F4E3E4FB215B4
:10120000DFF8F4C0DFF8F090DFF8ECA0DFF8E8B02A
:10121000DFF8E4E00168783F13011502ACF1640CDB
:10122000A9F15009AAF13C0AABF1280BAEF1140E5A
:101230004FF48018B14227D9B9420ED0614512D07F
:1012400049451DD0514518D0594518D0714501D197
:10125000424615E0294EB14201D1012210E0274E4D
:101260001436B14201D110220AE0244E2836B14290
:1012700006D0224A3C32914201D11A4600E02A4669
:101280001E49091F0A602BE0B94213D0614517D0EF
:10129000494522D051451DD059451DD0714501D138
:1012A00042461AE0B14202D14FF0807215E0134E6F
:1012B000B14201D1012210E0104E1436B14201D1E9
:1012C00010220AE00D4E2836B14206D00B4A3C32BD
:1012D000914201D11A4600E02A46074980394A6006
:1012E000012180F82110002180F82010416B01B10C
:1012F00088472046BDE8F09F800002400804024075
:1013000070B5044600F010F90546601C02D0044890
:101310000078044400F008F9401BA042FAD370BDE5
:101320000C0000202DE9F84FDFF8C8910024A9F146
:10133000040B23460F2709F1040AABF1040ED1E098
:101340000125A54006EA0502AA4276D1DFF8A8C128
:101350004E68A6EB0C0866452BD00DDC032E34D06E
:1013600005DC36B3012E19D0022E2FD11BE0112E31
:1013700016D0122E2AD119E0B8F5881F19D006DC34
:10138000B8F5803F15D0B8F5801F1FD111E0B8F532
:10139000001F0ED0B8F5041F18D10AE0CB6815E085
:1013A000CB681B1D12E0CB6808330FE0CB680C3311
:1013B0000CE08B682BB1012B4FF0080303D0456183
:1013C00004E0042302E0056100E00023FF2A01D8C5
:1013D000064601E000F104064FEA840501D9A5F1B3
:1013E0002005D6F8008007FA05FC28EA0C0803FA65
:1013F00005F548EA0508C6F800804D68ED0070D58F
:101400003E4DAE6946F00106AE61AD6924F00306BB
:1014100005F0010500953A4D06EB050CDCF8085087
:10142000A607360F07FA06F825EA0805DFF8D48084
:10143000404503D14FF0000825E052E0DFF8C880B6
:10144000404502D14FF001081DE0DFF8C080404563
:1014500002D14FF0020816E0DFF8B480404502D117
:101460004FF003080FE0DFF8AC80404502D14FF0A9
:10147000040808E0DFF8A080404502D14FF00508DD
:1014800001E04FF0060808FA06F848EA0508CCF82B
:1014900008804D68D9F80060ED024D4601D516432D
:1014A00000E096432E604D68DAF80060AD025546C4
:1014B00001D5164300E096432E604D68DBF80060CE
:1014C000AD035D4601D5164300E096432E604D689E
:1014D000DEF80060ED03754601D5164300E0964343
:1014E0002E60641C0A681646E2407FF429AFBDE80E
:1014F000F88F0000080401400000111000100240A5
:101500000000014000080140000C014000100140B3
:101510000014014000180140001C01400AB10161A3
:1015200070470904FBE7000001488068704700002D
:101530000C000020024881680278114481607047E5
:101540000C000020074810B5016841F0100101604F
:10155000032000F075F80F2000F006F800F024F8E2
:10156000002010BD0020024070B50D4D04464FF420
:101570007A712878B1FBF0F00A490968B1FBF0F004
:1015800000F052FB48B9102C07D200222146501E11
:1015900000F036F800206C6070BD012070BD0000C6
:1015A0000C000020180000200C4808B5816941F0AB
:1015B00001018161816901F001010091C16941F07E
:1015C0008051C161C06900F08050009004484168BA
:1015D00021F0E06141F00071416008BD001002405F
:1015E00000000140002809DB00F01F0201219140AA
:1015F0004009800000F1E020C0F8001170470000B1
:10160000F0B40E4B1B680C46C3F30223C3F107056D
:10161000042D00D90425191D072901D2002300E05B
:10162000DB1E012606FA05F1491E214099409E4025
:10163000761E16403143F0BC01F0D5BA0CED00E047
:10164000064900F0070208684FF6FF03184040EA19
:101650000220034A10430860704700000CED00E0D0
:101660000000FA052DE9F84305460078354CC0071F
:1016700054D0E0690026C00008D4E06940F08050F2
:10168000E061E069012600F0805000902E4801687A
:10169000C90512D40168804641F480710160FFF7EA
:1016A00043FF074605E000BFFFF73EFFC01B64286D
:1016B00023D8D8F80000C005F6D5206A10F4407091
:1016C00021D0A98801F4407181421CD0206A1F49B1
:1016D000012220F440700A6000220A602062C007E4
:1016E00011D0FFF721FF074641F2883808E000BF1C
:1016F000FFF71AFFC11B414502D90320BDE8F8835B
:10170000206A8007F4D5206A696820F44070084395
:1017100020621EB1E06920F08050E06128788007E7
:1017200005D56068A96820F44040084360602878C7
:10173000C00605D56068696920F4800008436060D0
:101740000020DBE7001002400070004040044242ED
:101750002DE9F0470F46050061D0434E306800F098
:101760000700B84209D2306820F0070038433060E3
:10177000306800F00700B84251D128683B4C81071F
:1017800012D5400703D5606840F4E06060602878B7
:10179000000703D5606840F4605060606068A96825
:1017A00020F0F000084360602878C00728D06868FF
:1017B000012810D02168022810D0890700292EDACC
:1017C000616821F0030101436160FFF7ADFE8046CF
:1017D00041F288390DE021688903EFE78901EDE7DF
:1017E000FFF7A2FEA0EB0801494502D90320BDE89E
:1017F000F0876068696800F00C00B0EB810FEFD1F2
:10180000306800F00700B8420BD9306820F00700BC
:1018100038433060306800F00700B84201D0012042
:10182000E5E72878400705D56068E96820F4E060BE
:10183000084360602878000706D56068296920F4AD
:10184000605040EAC100606000F038F86168084A02
:10185000C1F30311515CC84006490860064800689E
:10186000FFF782FE0020C2E7002002400010024085
:101870001A2E000818000020100000200448054916
:1018800000684968044AC1F30221515CC8407047AE
:1018900018000020001002402A2E000804480549C4
:1018A00000684968044AC1F3C221515CC8407047CE
:1018B00018000020001002402A2E00080E4A51682D
:1018C0000E4801F00C03042B11D0082B0FD10C484B
:1018D000C1F38343C903C05C0AD55168084AC1F308
:1018E0004041921E515C054A5043B0FBF1F07047F5
:1018F00004494843704700000010024000127A007B
:101900000A2E000800093D002DE9F84F040070D0B0
:101910002078C04DC00749D06868C0F38100012815
:1019200007D06868C0F38100022809D16868C00345
:1019300006D52868800339D560680028E7D035E0EF
:101940006068B0F5803F0BD010B1B0F5A02F11D07A
:10195000286820F480302860286820F4802002E085
:10196000286840F480302860606890B1FFF7DCFDA3
:1019700006460AE0286840F480202860F0E700BFAF
:10198000FFF7D2FD801B642873D828688003F7D541
:101990000CE0FFF7C9FD064605E000BFFFF7C4FDF8
:1019A000801B6428F0D828688003F7D420789A4EEA
:1019B00080074FF001094FF0000839D5686810F032
:1019C0000C0F07D06868C0F38100022809D168684D
:1019D000C00306D42868800714D52069012808D1DF
:1019E00010E02069B0B1C6F80090FFF79DFD0746F2
:1019F00005E00AE1FFF798FDC01B0228C4D828685B
:101A00008007F7D52868616920F0F80040EAC10036
:101A100028600DE0C6F80080FFF786FD074604E069
:101A2000FFF782FDC01B022823D828688007F7D45F
:101A3000207800072CD57948A169D9B1C0F8009069
:101A4000FFF772FD074604E0FFF76EFDC01B02289A
:101A50000FD8686A8007F7D571484FF4FA510068CB
:101A6000B0FBF1F0009000BF0098411E0091FAD247
:101A70000EE080E0C0F80080FFF756FD074604E066
:101A8000FFF752FDC01B022875D8686A8007F7D49B
:101A90002078400760D5E8690027C00008D4E869CD
:101AA00040F08050E861E869012700F08050009024
:101AB0005C480168C90513D40168834641F480710C
:101AC0000160FFF731FD824606E000BFFFF72CFD05
:101AD000A0EB0A0064284ED8DBF80000C005F5D55D
:101AE000E06801280AD008B1052813D0286A20F040
:101AF00001002862286A20F0040002E0286A40F011
:101B000001002862E06841F2883B98B1FFF70CFDC4
:101B100082460BE0286A40F004002862EEE700BF2E
:101B2000FFF702FDA0EB0A0159455AD8286A800741
:101B3000F6D50CE0FFF7F8FC824605E0FFF7F4FC71
:101B4000A0EB0A0159454CD8286A8007F6D41FB18A
:101B5000E86920F08050E861E06988B36968C1F302
:101B60008101022944D00228C6F8608004D0FFF722
:101B7000DBFC044638E034E0FFF7D6FC074604E01F
:101B8000FFF7D2FCC01B02282BD828688001F7D4AD
:101B9000206AB0F5803F05D16868A16820F4003064
:101BA00008436860D4E908010843696821F47411A6
:101BB00008436860C6F86090FFF7B6FC044606E08C
:101BC00025E000BFFFF7B0FC001B022809D82868F9
:101BD0008001F7D51BE000BFFFF7A6FC001B022821
:101BE00002D90320BDE8F88F28688001F4D40EE004
:101BF0000128F7D06868226A00F48031914204D14C
:101C0000616A00F47010884201D00120EAE70020E8
:101C1000E8E7000000100240000042428004424217
:101C2000180000200070004010B5401EB0F1807F09
:101C300001D3012010BD4FF0E02460610F21601737
:101C400000F0D1FF0020A06107202061002010BD1E
:101C500070477047F8B5016804460868CA684B6960
:101C600010F00F0F4FF0000559D003F0010602F4F9
:101C70009077374365D0C10705D0D10503D5616C96
:101C800041F001016164410705D5D90703D0616CBA
:101C900041F002016164810705D5D90703D0616C69
:101CA00041F004016164010707D502F020013143CE
:101CB00003D0616C41F008016164616C00293AD085
:101CC000800604D5900602D5204600F06EFE2068FE
:101CD0004069616CC0F38010090700D460B32046EE
:101CE00000F03CFE20684069400621D52068143091
:101CF00050E8001F21F0400140E80012002AF5D111
:101D0000E06BA8B16D494163E06BFFF761FA002811
:101D100011D0E06B416B01B0BDE8F040084783068D
:101D20000FD593060DD52046BDE8F84000F03DBE26
:101D30002046FFF78EFFF8BD2046FFF78AFF656457
:101D4000F8BD266B2023012E7CD1C6067AD5D60697
:101D500078D508684868009048694FF00206400648
:101D600040D5E16B086840680004000CE8D0A28D03
:101D70008242E5D9E085886920282DD020680C3082
:101D800050E8001F21F4807140E80012002AF5D1CC
:101D90002068143050E8001F21F0010140E80012D3
:101DA000002AF5D12068143050E8001F21F04001CE
:101DB00040E80012002AF5D184F8423025632068FB
:101DC0000C3050E8001F21F0100140E80012002AFA
:101DD000F5D1E06BFFF7D8F96663A08DE18D401A6D
:101DE00081B22AE0A08DE18D401A81B2E08D0028F9
:101DF000A6D00029A4D022680C3252E8000F20F4AB
:101E0000907042E80007002FF5D12068143050E8A8
:101E1000002F22F0010240E80027002FF5D184F8BE
:101E20004230256320680C3050E8002F22F0100269
:101E300040E80023002BF5D166632046FFF708FF3A
:101E4000F8BDFFE705062BD5150629D594F8410006
:101E50002128F5D1A068B0F5805F01D12069B0B12B
:101E6000206A411C2162216800784860E08C401E95
:101E70000004000CE084E3D12068C16821F08001F7
:101E8000C1602068C16841F04001C160D8E7206AA4
:101E90000088C0F308004860206A801C2062E5E7E3
:101EA0004006CDD55006CBD5CA68204622F0400268
:101EB000CA6084F8413000F019F9C1E74D290008E3
:101EC00070B5040004D094F84100002510B106E07C
:101ED000012070BD84F84050204600F023F82420F3
:101EE00084F841002068C16821F40051C160204697
:101EF00000F0BCFD2068016921F490410161206877
:101F0000416921F02A0141612068C16841F4005112
:101F1000C1606564202084F8410084F84200656354
:101F2000002070BD70B586B0002400940194029426
:101F3000039403682E482D4E022103220515B34257
:101F400026D1836943F480438361836903F480432A
:101F50000493836943F0040383618069254E00F094
:101F6000040004900802CDE900010392694630465E
:101F7000FFF7D8F9CDE90054694630460294FFF7DF
:101F8000D1F9002211462520FFF73AFB252028E051
:101F9000194EB34227D1C36943F48023C361C36997
:101FA00003F480230493836943F008038361806909
:101FB000CDE9005100F00800CDE903200F4D69463E
:101FC0002846FFF7AFF9E814CDE900046946284632
:101FD0000294FFF7A7F9002211462720FFF710FB14
:101FE0002720FFF7FFFA06B070BD0000003801405F
:101FF000001002400008014000480040000C014071
:1020000090F84230202B01D00220704721B11AB144
:102010000023036300F086BD0120704709480A4B86
:102020000178491CC9B2017009301944027801F8DD
:10203000012C0021017001460122A3F19000FFF75D
:10204000DFBF000000000020E80000202DE9F84379
:10205000044690F84100984616460D46202802D0C6
:102060000220BDE8F88385B17EB1002060642120A4
:1020700084F84100FFF758FAA6848146E684A068F8
:102080002027B0F5805F02D003E00120E9E7206956
:1020900010B12E4600250EE000260CE080212046DF
:1020A00000F05BFDA8B9C6B116F8010B21684860C5
:1020B000E08C401EE084E08C4B464FF00002CDF8EF
:1020C00000800028EAD14FF04001204600F045FD95
:1020D00040B184F841700320C3E735F8020BC0F328
:1020E0000800E3E784F841700020BAE77047FEE794
:1020F0003EB5002411480094019402940E49846076
:10210000016004730475012505614FF4602144608A
:10211000C161FEF77DFF08B172B6FEE70320CDE98D
:102120000005694602940548FEF7F4FE002801D038
:1021300072B6FEE73EBD00000024014028000020EA
:102140002DE9F04186B000242048009401940294C7
:102150000394816941F040018161816901F040018E
:102160000491816941F004018161816901F00401F8
:102170000491816941F0080181618069144F00F088
:1021800008000490002210213846FFF7C7F9DFF855
:1021900044800022C0214046FFF7C0F910200125ED
:1021A0000226CDE90005CDE9024669463846FFF72B
:1021B000B9F8C020CDE90005CDE9024669464046A0
:1021C000FFF7B0F806B0BDE8F08100000010024053
:1021D00000180140000C0140FEE7FEE710B50021A9
:1021E000074C0A46002004EBC1131A54401CC0B22D
:1021F0008028FAD3491CC9B20829F3D310BD0000C6
:10220000E8010020F0B50B4424E0044685181DE0E9
:102210007F2C19D8002917DB3F2915DCCE1701EBDD
:1022200056764FEAE60C0D4F26F0070607EBCC1763
:102230002744A1EB060E97F800C0012606FA0EF619
:102240002CEA060C87F800C0641C24B2A542DFDC2F
:10225000491C09B28B42D8DCF0BD0000E801002027
:1022600010B500204FF47A720021491C9142FCD332
:10227000401C9042F8D3012000F00EFABDE8104057
:10228000012000F011BA70B500240646802525FA19
:1022900004F0304000D0012000F006FA012000F0E8
:1022A000FBF9002000F0F8F9641CE4B2082CEED32E
:1022B000012000F0F1F9BDE87040002000F0ECB919
:1022C00010B5012000F0F0F9012000F0E5F9002040
:1022D00000F0EAF9BDE81040002000F0DDB910B5CB
:1022E000002000F0E1F9012000F0D6F9BDE810402F
:1022F000012000F0D9B910B5FFF7B2FFAE2000F011
:10230000DBF9D52000F0D8F9802000F0D5F9A8201D
:1023100000F0D2F93F2000F0CFF9D32000F0CCF943
:10232000002000F0C9F9402000F0C6F9A12000F01B
:10233000C3F9C82000F0C0F9DA2000F0BDF912207E
:1023400000F0BAF9812000F0B7F9CF2000F0B4F91D
:10235000D92000F0B1F9F12000F0AEF9DB2000F057
:10236000ABF9302000F0A8F9A42000F0A5F9A620D0
:1023700000F0A2F98D2000F09FF9142000F09CF9E4
:10238000AF2000F099F9FFF729FFBDE8104000F0F9
:102390006FB90246012000E05043491EFCD270474D
:1023A00010B50C4640F0B00000F086F9102040EA6D
:1023B000141000F081F904F00F00BDE8104000F0A7
:1023C0007BB9000008B5082B0DD0062B0AD10A4BAB
:1023D00002EB420203EB4202C03A009208230622BB
:1023E00000F00EF808BD054B03EB0212A2F50072D7
:1023F000102300920822F3E722340008322E00084E
:102400002DE9F04F1F4616460D4682460024FFF781
:10241000F9FE7F1EF81707EB50700121DFF898B026
:1024200001EBE00743E000203DE000BF0AEB0003C2
:102430007F2B36D8E91705EB5171CA1021F007013F
:10244000691A002D03DA521E083112B209B202EBEA
:102450000409B9F1070F0ED8099A04FB06F80244E3
:102460000BEBC91E18F802201EF803C08A404CEA84
:10247000020C0EF803C009F10102072A11D80BEB78
:10248000C91202EB0308099A04FB06FC024498F8FF
:1024900080301CF80220C1F10801CA40134388F8BB
:1024A0008030401CC0B2B042C0D3641CE4B2A7422A
:1024B000B9DCBDE8F08F0000E80100202DE9F0470D
:1024C00000241D4690468A4681460A27089E14E04D
:1024D000291B0A20491EFFF75CFFB8FBF0F0B0FB98
:1024E000F7F107FB110204FB069000B23346514698
:1024F0003032FFF767FF641CE4B2AC42E8D3BDE8BA
:10250000F08700002DE9FF4F002483B09B469046E2
:102510002546A246DFF850919EE0100610D403989D
:102520008DF80420641C2844A4B28DF805A000B2E4
:102530005B460499FFF746FF05EB0B0085B28BE085
:102540000620B0EB521F0ED1641CA0B28DF80420FF
:1025500018F80010002974D08DF80510401C84B2C2
:102560008DF806A03CE00E20B0EB121F16D1641CC3
:10257000A0B28DF8042018F80010002971D0401C7A
:1025800080B28DF8051018F80010002969D08DF878
:102590000610401C84B28DF807A021E01E20B0EB8D
:1025A000D20F1FD1641CA0B28DF8042018F80010BF
:1025B000002956D0401C80B28DF8051018F8001084
:1025C00000294ED0401C80B28DF8061018F800107B
:1025D000002946D0401C8DF8071084B28DF808A061
:1025E000002609E0641CA4B236E0384601A9FDF7D4
:1025F0004DFF68B1761CB6B206EB860000EB4611C3
:1026000001EB0900074619A1FDF740FF0028ECD1B6
:10261000BBF1080F03D0BBF1060F1DD112E006EB92
:10262000860000EB461101EB0900401D0090039865
:102630001023284400B21A460499FFF7E1FE103532
:1026400009E00EE003980623284400B23F220499D3
:10265000FFF7B8FEAD1DADB218F80420002A7FF4D4
:102660005CAF07B0BDE8F08F5C36000800000000EA
:1026700070B5084D002400212046FFF791FE05EBC0
:10268000C410802100F029F8641CE4B2082CF2D3B5
:1026900070BD0000E8010020024640210148FEF71D
:1026A0003DBF0000000C0140024680210148FEF7BA
:1026B00035BF0000000C014010B50446FFF700FED6
:1026C0007820FFF7E0FD0020FFF7DDFD2046FFF753
:1026D000DAFDBDE81040FFF702BE70B50D460646B4
:1026E000FFF7EEFD7820FFF7CEFD4020FFF7CBFD92
:1026F000002404E0305DFFF7C6FD641CE4B2AC4288
:10270000F8D3BDE87040FFF7EABD7047F0B5C1B03F
:102710000E4604464FF4807529466846FDF78EFE46
:10272000F4B1072E1CD30022B61E08E0A05CAA2834
:1027300003D1A0184078552804D0521C92B2B2425E
:10274000F4DD0DE0171DB9B208E0605C552803D137
:1027500060184078AA2806D0491C89B2B142F4DD3D
:10276000002041B0F0BDA618891AB078891CC31D9D
:1027700089B29942F4D1A842F2D8F578BBB20021CF
:102780006A4604E05F18E75D5754491C89B28142EC
:10279000F8D31918F278675CB178491E1144C9B2B0
:1027A000002205E09E18521CA65D92B23144C9B2C7
:1027B0008242F7D3FF31C8B2B842D1D1042D06D03E
:1027C000052D0DD0062D19D0072D13D11FE014A013
:1027D000FDF728FD16489DF80010017015A007E0D0
:1027E0001AA0FDF71FFD1D489DF8001001701CA0E8
:1027F000FDF718FDFEF77CFB0120B2E71EA0FDF7F8
:1028000011FD23489DF80010017022A0F0E727A0D9
:10281000FDF708FD2A489DF80010017029A0E7E7A0
:102820005345545F434F5F5741524D0D0A0000001E
:1028300005000020434F5F5761726E5F56616C75F3
:1028400065203D2025640D0A000000005345545FBB
:10285000464952455F5741524D0D0A00060000207F
:10286000466972655F5761726E5F56616C7565206F
:102870003D2025640D0A00005345545F4149525FD5
:102880004C4556454C5F5741524D0D0A0000000023
:10289000070000204169725F5761726E5F4C657678
:1028A000656C203D2025640D0A0000005345545FEF
:1028B00054454D50545255455F5741524D0D0A00F5
:1028C0000400002054656D70747275655F56616C0C
:1028D0007565203D2025640D0A0000007047FEF755
:1028E00029BE30B595B028216846FDF7A7FD142113
:1028F0000AA8FDF7A3FD18210FA8FDF79FFD0120F1
:102900000225049000951020002405900794684645
:10291000FEF7FAFF08B172B6FEE70F20CDE90A0410
:102920000C940D9400210AA80E94FEF711FF08B133
:1029300072B6FEE70FA80F951194FEF793FE0028DC
:1029400001D072B6FEE715B030BD704710B5406AD1
:102950000021C185C184FFF77CF910BD01680C31ED
:1029600051E8002F22F4907241E80023002BF5D1AA
:102970000168143151E8002F22F0010241E80023E0
:10298000002BF5D1016B012909D101680C3151E807
:10299000002F22F0100241E80023002BF5D1202166
:1029A00080F8421000210163704708B590F842108A
:1029B000222901D0022008BD82684FF480539A4238
:1029C00001D1016921B1816A9A421BD04AB10AE062
:1029D0000268816A5268C2F308020A80816A891C0F
:1029E00008E0026972B10268526802F07F020A7060
:1029F000816A491C8162C18D491E0904090CC18587
:102A000003D01BE002685268F1E70168CA6822F04F
:102A10002002CA600168CA6822F48072CA60016834
:102A20004A6922F001024A61202180F84210002107
:102A30004163026B012A03D0FFF7F0FA002008BDC2
:102A4000016301680C3151E8002F22F0100241E8C7
:102A50000023002BF5D101680A68D20602D50A6866
:102A600049680091818DFFF7F3F8E7E770B50446F8
:102A700000680169E26821F4405111430161216954
:102A8000A0680843616908432168CA6841F20C6381
:102A90009A430243CA6020684169A26921F44071E7
:102AA000114341611E492068884202D1FEF7F6FEBB
:102AB00001E0FEF7E3FE00EBC00101EB00126068ED
:102AC00064218000B2FBF0F3B3FBF1F36FF0180662
:102AD0007343B2FBF0F5B2FBF0F605EB830532234E
:102AE00003EB0515B5FBF1F5B6FBF1F605F0F005C6
:102AF00005EB0615B2FBF0F6B2FBF0F0B0FBF1F01F
:102B00006FF01802504306EB800003EB0010B0FB9F
:102B1000F1F0216800F00F002844886070BD0000CB
:102B20000038014081628285C285002141642221F2
:102B300080F84210016921B10168CA6842F48072CC
:102B4000CA6001684A6942F001024A610068C168CE
:102B500041F02001C160002070472DE9F8439846FC
:102B600017460D460446089E24E0701C22D0FEF74E
:102B7000DBFCA0EB0800B0421AD8CEB12068C168D7
:102B8000490717D5802D15D0402D13D00168C943B2
:102B900009070FD401680025406800902046FFF720
:102BA000DDFE0820606484F840500120BDE8F88311
:102BB0000320FBE72068006835EA000004D000200D
:102BC000B842D2D00020F1E70120F9E70148FFF731
:102BD00041B80000580000200148FFF73BB8000052
:102BE000A0000020FEE70907090E002804DB00F121
:102BF000E02080F80014704700F00F0000F1E020A2
:102C000080F8141D704730380A2801D2012070471F
:102C10000020704713B54FF0FF3301226946024888
:102C2000FFF714FA00981CBD5800002008B5FEF705
:102C300089FCFFF756FEFFF783FA584856494FF4D0
:102C4000E13500240160C0E901540C26C460C0E9EC
:102C500004468461C461FFF733F908B172B6FEE738
:102C60004E484F4948380160C0E90154C460C0E98A
:102C700004468461C461FFF723F908B172B6FEE728
:102C8000FFF736FA47A0FDF7CDFAFFF734FB50A067
:102C9000FDF7C8FA4148012252494838FFF7B0F918
:102CA000504D08244FF48076093D4FF4FA773B48A5
:102CB00031464830FFF72AFD002108234AA2084682
:102CC000FFF720FC009403236A7800212020FFF7FF
:102CD000F5FB082345A200214020FFF713FC0094D8
:102CE0000323AA7800216020FFF7E8FB082340A215
:102CF00010210020FFF706FC00940323EA7810213E
:102D00002020FFF7DBFB08233AA210214020FFF729
:102D1000F9FB009403232A7910216020FFF7CEFBF2
:102D2000082335A220210020FFF7ECFB009420218E
:102D300003236A790846FFF7C1FB08232FA220214D
:102D40004020FFF7DFFB00940323AA7920216020B5
:102D5000FFF7B4FB08232AA230210020FFF7D2FBA3
:102D600000940323EA7930212020FFF7A7FB0823F2
:102D700024A230214020FFF7C5FB009403232A7AC8
:102D800030216020FFF79AFBFFF772FCFFF726FA6D
:102D90003846FEF7B5FA8AE700480040A000002058
:102DA00000380140496E697469616C697A65206117
:102DB0006C6C20636F6E6669677572656420706500
:102DC000726970686572616C73210D0A0000000001
:102DD0004F4C45442068617320696E6974210D0A67
:102DE0000000000009000020434F3D0046523D0016
:102DF000414C3D0054453D0057433D0057463D0082
:102E000057413D0057543D000102020304050607E7
:102E100008090A0B0C0D0E0F101000000000000036
:102E20000000010203040607080900000000010277
:102E3000030400000000000000000000000000008B
:102E40000000000000F80000000000000033300027
:102E5000000000160E00160E00000000000000002A
:102E6000000040C07840C0784000043F04043F04A4
:102E70000400007088FC08300000001820FF211EAC
:102E80000000F008F000E018000000211C031E21E3
:102E90001E0000F00888700000001E21232419275E
:102EA0002110000000160E000000000000000000CD
:102EB0000000000000E018040200000000071820D5
:102EC000400000020418E000000000402018070045
:102ED0000000404080F0804040000202010F0102EB
:102EE0000200000000F0000000000101011F0101CC
:102EF0000100000000000000000000B070000000B1
:102F000000000000000000000000000101010101BC
:102F1000010100000000000000000030300000004F
:102F20000000000000008060180400601806010026
:102F3000000000E010080810E000000F1020201032
:102F40000F00001010F8000000000020203F20209B
:102F50000000007008080888700000302824222132
:102F600030000030088888483000001820202011E8
:102F70000E000000C02010F8000000070424243FC9
:102F8000240000F808888808080000192120201172
:102F90000E0000E0108888180000000F112020119A
:102FA0000E0000380808C83808000000003F000084
:102FB00000000070880808887000001C222121226F
:102FC0001C0000E010080810E0000000312222116F
:102FD0000F00000000C0C000000000000030300002
:102FE0000000000000C0C0000000000080B07000C1
:102FF00000000000804020100800000102040810BA
:1030000020004040404040404000040404040404C8
:103010000400000810204080000000201008040276
:103020000100007048080808F00000000030360178
:103030000000C030C828E810E00007182724231437
:103040000B000000C038E0000000203C23020227F3
:10305000382008F8888888700000203F2020201140
:103060000E00C0300808080838000718202020107B
:10307000080008F808080810E000203F2020201071
:103080000F0008F88888E8081000203F202023203F
:10309000180008F88888E8081000203F2000030086
:1030A0000000C03008080838000007182020221E41
:1030B000020008F808000008F808203F210101215B
:1030C0003F20000808F8080800000020203F2020CA
:1030D000000000000808F8080800C08080807F0019
:1030E000000008F888C028180800203F2001263872
:1030F000200008F8080000000000203F20202020C9
:10310000300008F8F800F8F80800203F003F003FC2
:10311000200008F830C00008F808203F20000718F9
:103120003F00E01008080810E0000F1020202010D9
:103130000F0008F808080808F000203F21010101ED
:103140000000E01008080810E0000F182424385090
:103150004F0008F8888888887000203F2000030C02
:10316000302000708808080838000038202121220B
:103170001C00180808F8080818000000203F20006C
:10318000000008F808000008F808001F2020202090
:103190001F000878880000C83808000007380E01B2
:1031A0000000F80800F80008F800033C0700073C9E
:1031B0000300081868808068180820302C03032C4E
:1031C00030200838C800C83808000000203F200020
:1031D000000010080808C8380800203826212020E0
:1031E0001800000000FE020202000000007F4040C4
:1031F0004000000C30C00000000000000001063854
:10320000C00000020202FE000000004040407F00BB
:10321000000000201008040810200000000000003A
:10322000000000000000000000008080808080809E
:103230008080000204080000000000000000000080
:1032400000000000808080800000001924222222DB
:103250003F2008F8008080000000003F112020116E
:103260000E000000008080800000000E1120202051
:103270001100000000808088F800000E112020104E
:103280003F200000808080800000001F2222222238
:103290001300008080F0888888180020203F2020BC
:1032A00000000000808080808000006B94949493E4
:1032B000600008F8008080800000203F210000208E
:1032C0003F2000809898000000000020203F202030
:1032D0000000000000809898000000C08080807F7F
:1032E000000008F8000080808000203F24022D307C
:1032F0002000000808F8000000000020203F2020E7
:1033000000008080808080808000203F20003F205F
:10331000003F008080008080000000203F210020CE
:103320003F200000808080800000001F202020209F
:103330001F00808000808000000080FFA1202011FD
:103340000E000000008080808000000E112020A070
:10335000FF80808080008080800020203F2120002E
:103360000100000080808080800000332424242419
:103370001900008080E0808000000000001F2020F5
:1033800000008080000000808000001F20202010AE
:103390003F20808080000080808000010E30080681
:1033A000010080800080008080800F300C030C3092
:1033B0000F0000808000808080000020312E0E31C0
:1033C0002000808080000080808080818E701806C0
:1033D000010000808080808080000021302C22212C
:1033E000300000000000807C020200000000003F6E
:1033F000404000000000FF00000000000000FF004F
:1034000000000002027C800000000040403F0000FD
:1034100000000080404080000080000000000001AB
:1034200001000000000000000000002F000000006C
:103430000700070000147F147F1400242A7F2A123B
:10344000002313086462003649552250000000072B
:10345000000000001C224100000041221C0000145A
:10346000083E08140008083E0808000000A060009C
:10347000000808080808000060600000002010082C
:103480000402003E5149453E0000427F4000004298
:1034900061514946002141454B31001814127F10FB
:1034A000002745454539003C4A494930000171092A
:1034B000050300364949493600064949291E0000DE
:1034C0003636000000005636000000081422410085
:1034D00000141414141400004122140800020151B5
:1034E0000906003E4955592E007C1211127C007FBE
:1034F00049494936003E41414122007F4141221C59
:10350000007F49494941007F09090901003E4149BD
:10351000497A007F0808087F0000417F41000020B1
:1035200040413F01007F08142241007F404040405D
:10353000007F020C027F007F0408107F003E4141A3
:10354000413E007F09090906003E4151215E007F8E
:10355000091929460046494949310001017F010105
:10356000003F4040403F001F2040201F003F4038A8
:10357000403F0063140814630007087008070061E7
:103580005149454300007F414100000204081020DA
:10359000000041417F00000402010204004040405D
:1035A0004040000001020400002054545478007F81
:1035B0004844443800384444442000384444487F58
:1035C00000385454541800087E0901020018A4A4BD
:1035D000A47C007F080404780000447D4000004083
:1035E00080847D00007F102844000000417F40005F
:1035F000007C04180478007C0804047800384444F3
:10360000443800FC242424180018242418FC007CCE
:103610000804040800485454542000043F44402047
:10362000003C4040207C001C2040201C003C4030DE
:10363000403C004428102844001CA0A0A07C00446A
:1036400064544C440000087F41000000007F0000EB
:103650000000417F0800000804081008A3AC000027
:10366000000000000000000000000000000000005A
:1036700000000058380000000000000000000000BA
:1036800000A1A300000000000000000000000000F6
:1036900000000000000000001824241800000000B2
:1036A000000000000000C4E3000000008060F80794
:1036B0004020180F08C80808281800010000FF0063
:1036C000100C0340807F0001061800BAC300000000
:1036D0001010F01F10F000808282E2928A86800033
:1036E000402215081661000040807F0000000000A5
:1036F000CAC0000000202020FE2020FF202020FF44
:1037000020202020000000007F40404744444447E0
:103710004040400000BDE7000000000000FE929223
:1037200092FE929292FE0000000008080484621E3D
:10373000010001FE0204040808000000000000FF70
:103740000101013109090909897101010101FFFF25
:103750008080808080809681808080808080FF044F
:10376000000008000000000000000200010000103E
:103770003A7474003A7474003A7474009C37000808
:1037800000000020280000006C010008C437000879
:1037900028000020200D0000880100080000000023
:1037A0000000000000000000010000001000000008
:1037B0000000000000127A0000000000000000007D
:0437C0000000000005
:0400000508000131BD
:00000001FF
