:020000040800F2
:1000000070060020CD010008890B0008850B000850
:10001000870B000887020008950B0008000000000D
:100020000000000000000000000000008D0B000830
:1000300089020008000000008B0B00088F0B0008ED
:10004000E7010008E7010008E7010008E7010008F0
:10005000E7010008E7010008E7010008E7010008E0
:10006000E7010008E7010008E7010008E7010008D0
:10007000E7010008E7010008E7010008E7010008C0
:10008000E7010008E7010008E7010008E7010008B0
:10009000E7010008E7010008E7010008E7010008A0
:1000A000E7010008E7010008E7010008E701000890
:1000B000E7010008E7010008E7010008E701000880
:1000C000E7010008E7010008E7010008E701000870
:1000D000E7010008E7010008E7010008E701000860
:1000E000E7010008E7010008E7010008E701000850
:1000F000E7010008E7010008E7010008E701000840
:10010000E7010008E7010008E7010008E70100082F
:10011000E7010008E7010008E7010008E70100081F
:10012000E7010008E7010008E7010008E70100080F
:1001300000F002F800F03AF80AA090E8000C8244BF
:100140008344AAF10107DA4501D100F02FF8AFF29C
:10015000090EBAE80F0013F0010F18BFFB1A43F0A5
:1001600001031847EC0A00000C0B0000103A24BFF2
:1001700078C878C1FAD8520724BF30C830C144BF0C
:1001800004680C607047000000230024002500264E
:10019000103A28BF78C1FBD8520728BF30C148BFEA
:1001A0000B6070471FB51FBD10B510BD00F031F8D2
:1001B0001146FFF7F7FF00F0EFFC00F04FF803B433
:1001C000FFF7F2FF03BC00F057F800000948804732
:1001D00009480047FEE7FEE7FEE7FEE7FEE7FEE729
:1001E000FEE7FEE7FEE7FEE704480549054A064B41
:1001F00070470000930B00083101000870000020D8
:1002000070060020700200207002002070477047C6
:100210007047754600F02CF8AE4605006946534617
:1002200020F00700854618B020B5FFF7DDFFBDE8D8
:1002300020404FF000064FF000074FF000084FF04D
:10024000000B21F00701AC46ACE8C009ACE8C009DE
:10025000ACE8C009ACE8C0098D46704710B504464B
:10026000AFF300802046BDE81040FFF7A8BF0000B4
:10027000004870471000002001491820ABBEFEE77F
:10028000260002007047FEE77047000000230A685E
:100290009C46002A08BF70472DE9F84F784EDFF8DA
:1002A000DC914FF001080F2706F1040E0A6808FAE6
:1002B00003F42240A2427CD14D68A5F1805AAAF5F0
:1002C000881A4D4500F0C98074DC032D08BF4FF03B
:1002D000000C1BD00DDC002D6DD0012D08BFD1F816
:1002E0000CC013D0022D04BFD1F80CC00CF1080CC7
:1002F0000CE0112D04BFD1F80CC00CF1040C05D09A
:10030000122D04BFD1F80CC00CF10C0CB2F5807F9B
:1003100034BF0546051D4FEA830428BF203CD5F8AD
:1003200000A007FA04FB2AEA0B0A0CFA04F44AEAD2
:1003300004042C604C6814F0805F74D0514CA569A3
:1003400045F00105A561A46904F00104009423F0BF
:10035000030404F1804505F58035D5F808A04FEA7F
:1003600083744FEA147407FA04FB2AEA0B0AA0F11B
:10037000804BBBF5843B2CD0A0F1804BBBF5863B7A
:1003800008BF4FF0010B24D0A0F1804BBBF5883B98
:1003900008BF4FF0020B1CD0A0F1804BBBF58A3B8D
:1003A00008BF4FF0030B14D0A0F1804BBBF58C3B82
:1003B00002E038E03EE050E008BF4FF0040B08D008
:1003C000A0F1804BBBF58E3B0CBF4FF0050B4FF0FF
:1003D000060B0BFA04F444EA0A04AC604C6814F40B
:1003E000801F346814BF1443944334604C6814F481
:1003F000001FDEF8004014BF14439443CEF80040C1
:100400004C6814F4003F204C256814BF15439543F5
:1004100025604C6814F4803F1C4C256814BF2A43A7
:1004200025EA020222600A685B1CDA407FF43EAFD4
:10043000BDE8F88FBAF5881F0FD007DCBAF5803F0A
:1004400018BFBAF5801F7FF461AF06E0BAF5001F50
:1004500018BFBAF5041F7FF459AFD1F808C0BCF13A
:10046000000F08BF4FF0040C3FF450AFBCF1010F78
:100470004FF0080C0CBF0461446147E70000111005
:10048000080401400010024004040140000401403F
:10049000002A08BF09040161704700000148806814
:1004A0007047000000000020024881680278114473
:1004B0008160704700000020074810B5016841F0D6
:1004C00010010160032000F07BF80F2000F006F817
:1004D00000F024F8002010BD0020024070B50D4D42
:1004E00004464FF47A712878B1FBF0F00A490968A4
:1004F000B1FBF0F000F030FB48B9102C07D200221D
:100500002146501E00F02AF800206C6070BD0120CA
:1005100070BD0000000000200C0000200D4881B0DC
:10052000816941F001018161816901F0010100915E
:10053000C16941F08051C161C06900F080500090F4
:100540000548416821F0E06141F08061416001B0FF
:10055000704700000010024000000140174B10B42B
:100560001B68C3F30223C3F1070CBCF1040F88BF5F
:100570004FF0040C1C1D072C34BF0023DB1E01248C
:1005800004FA0CFCACF1010C0CEA0101994004FAEC
:1005900003F35B1E1A40114300284FEA0111A1BF6B
:1005A00000F1E02080F8001410BC704700F00F004C
:1005B00000F1E02080F8141D10BC70470CED00E045
:1005C000074900F007000A684FF6FF031A4042EAA5
:1005D000002040F0FD7040F080600860704700002F
:1005E0000CED00E0002804BF012070472DE9F04722
:1005F000DFF8788105460E46D8F8000000F00700C5
:10060000B0420CD2D8F8000020F007003043C8F800
:100610000000D8F8000000F00700B04263D128685D
:10062000534C10F0020F14D010F0040F03D0606888
:1006300040F4E0606060287810F0080F03D0606834
:1006400040F4605060606068A96820F0F0000843E2
:100650006060287810F0010F32D0686801281FD040
:100660002168022821D011F0020F3CD0616821F0EE
:10067000030108436060FFF711FF0746606869687F
:1006800000F00C00B0EB810F18BF41F2883917D091
:10069000FFF704FFC01B48450BD90320BDE8F087D6
:1006A000216811F4003FE1D11DE011F0007FDDD1A0
:1006B00019E06068696800F00C00B0EB810FE7D1C9
:1006C000D8F8000000F00700B0420FD9D8F80000B9
:1006D00020F007003043C8F80000D8F8000000F010
:1006E0000700B04202D00120BDE8F087287810F062
:1006F000040F05D06068E96820F4E060084360609A
:10070000287810F0080F06D06068296920F460503E
:1007100040EAC10060606168164801F00C02042ADA
:1007200014D0082A12D11448C1F3834211F4803F37
:10073000805C04BF1149484308D06168104AC1F386
:100740004041515C0B4A5043B0FBF1F061680D4AE7
:10075000C1F30311515CC8400B4908600B480068A5
:10076000FFF7BCFE0020BDE8F0870000002002403B
:100770000010024000127A002E0C000800093D0013
:100780002C0C00083E0C00080C0000200400002087
:10079000002804BF012070472DE9F84F0446007877
:1007A000E84D10F0010F59D0686800F00C000428E3
:1007B00008D0686800F00C0008280CD1686810F4B4
:1007C000803F08D0286810F4003F47D060680028B8
:1007D00000F0B28142E06068B0F5803F04BF286855
:1007E00040F480300AD010B1B0F5A02F11D02868A5
:1007F00020F480302860286820F480202860606819
:10080000D0B1FFF74BFE0646286810F4003F08D031
:1008100024E0286840F480202860286840F4803074
:10082000ECE7FFF73BFE801B642800F23681286866
:1008300010F4003FF5D011E0FFF730FE06462868BF
:1008400010F4003F0AD000BFFFF728FE801B642889
:1008500000F22381286810F4003FF5D12078BA4EC9
:1008600010F0020F4FF0010B4FF0000845D0686800
:1008700010F00C0F14D0686800F00C00082804BFBA
:10088000686810F4803F0BD0206918B3C6F800B038
:10089000FFF704FE0746286810F0020F09D011E0A8
:1008A000286810F0020F1CBF206901280AD000F050
:1008B00043B9FFF7F3FDC01B02287DD8286810F06C
:1008C000020FF6D02868616920F0F80040EAC10004
:1008D000286012E0C6F80080FFF7E0FD07462868B0
:1008E00010F0020F09D000BFFFF7D8FDC01B02288F
:1008F00062D8286810F0020FF6D1207810F0080FA7
:1009000035D09248A169F9B1C0F800B0FFF7C6FD33
:100910000746686A10F0020F09D100BFFFF7BEFD5D
:10092000C01B022848D8686A10F0020FF6D0884829
:1009300001684FF4FA50B1FBF0F0009000BF00984E
:10094000411E0091FAD212E0C0F80080FFF7A6FD28
:100950000746686A10F0020F09D000BFFFF79EFD3E
:10096000C01B022828D8686A10F0020FF6D1207840
:1009700010F0040F79D0E8694FF0000A10F0805FA2
:1009800009D1E86940F08050E861E8694FF0010A58
:1009900000F080500090DFF8BC91D9F8000010F40E
:1009A000807F19D1D9F8000040F48070C9F80000A8
:1009B000FFF774FD074600E06FE0D9F8000010F47F
:1009C000807F09D1FFF76AFDC01B642865D8D9F87C
:1009D000000010F4807FF5D0E068012804BF286A89
:1009E00040F0010009D008B1052813D0286A20F092
:1009F00001002862286A20F004002862E06841F2C1
:100A00008837D0B1FFF74AFD8146286A10F0020FFF
:100A100008D023E0286A40F004002862286A40F0E9
:100A20000100EAE7FFF73AFDA0EB0900B84234D82D
:100A3000286A10F0020FF5D010E0FFF72FFD814675
:100A4000286A10F0020F09D0FFF728FDA0EB09007B
:100A5000B84222D8286A10F0020FF5D1BAF1000F7F
:100A600003D0E86920F08050E861E069F0B369687C
:100A700001F00C01082950D00228C6F860800FD080
:100A8000FFF70CFD0446286810F0007F57D000BF28
:100A9000FFF704FD001B02283AD90320BDE8F88FB8
:100AA000FFF7FCFC0746286810F0007F09D000BF64
:100AB000FFF7F4FCC01B0228EFD8286810F0007F75
:100AC000F6D1206AB0F5803F05D16868A16820F4AE
:100AD000003008436860D4E908010843696821F4DC
:100AE000741108436860C6F860B000E027E0FFF7C3
:100AF000D5FC0446286810F0007F20D1FFF7CEFC1B
:100B0000001B0228C9D8286810F0007FF6D016E034
:100B1000286810F0007FBBD111E0012808BFBDE8B4
:100B2000F88F6868226A00F48031914204D1616ACA
:100B300000F47010884202D00120BDE8F88F002038
:100B4000BDE8F88F0010024000004242800442429B
:100B50000C00002000700040411EB1F1807F24BFD6
:100B6000012070474FF0E0204161054AF02182F8F2
:100B7000141D0021816107210161002070470000E0
:100B80000FE000E0FEE7FEE7FEE770477047FFF783
:100B90008BBC7047FEE7000090B0FFF78DFC00248F
:100BA00009940A9402250126102000950E94CDE99F
:100BB00004600194029403940694079408940B949F
:100BC0000C940D946846FFF7E3FD08B172B6FEE79A
:100BD0000F20CDE90A040C940D9400210AA80E946C
:100BE000FFF700FD08B172B6FEE70E4800940194CD
:100BF00002940394816941F00401816180690A4F84
:100C000000F004000490002230213846FFF740FC39
:100C10003020CDE9000669463846CDE90245FFF7A8
:100C200035FBFEE70010024000080140010202030C
:100C30000405060708090A0B0C0D0E0F1010000022
:100C4000000000000000010203040607080900007C
:100C5000700C000800000020100000006C0100086B
:100C6000800C0008100000206006000088010008C9
:100C700001000000100000000000000000127A00D7
:0400000508000131BD
:00000001FF
